:020000040800F2
:1000000000000520611B00087D1A00087F1A000807
:10001000811A0008831A0008851A000800000000F1
:1000200000000000000000000000000081CE000879
:10003000871A00080000000021CF000885CF0008C3
:10004000B11B0008B11B0008B11B0008B11B000860
:10005000B11B0008B11B0008B11B0008B11B000850
:10006000B11B0008B11B0008B11B0008B11B000840
:10007000B11B0008B11B0008B11B0008B11B000830
:10008000B11B0008B11B0008B11B0008B11B000820
:10009000B11B0008B11B0008B11B0008B11B000810
:1000A000B11B0008B11B0008B11B0008B11B000800
:1000B000B11B0008B11B0008B11B0008B11B0008F0
:1000C000B11B0008B11B0008B11B0008B11B0008E0
:1000D000B11B0008B11B0008B11B0008B11B0008D0
:1000E000B11B0008B11B0008B11B0008B11B0008C0
:1000F000B11B0008B11B0008B11B0008B11B0008B0
:10010000B11B0008B11B0008B11B0008B11B00089F
:10011000B11B0008B11B0008891A0008B11B0008B8
:10012000B11B0008B11B0008B11B0008B11B00087F
:10013000B11B0008B11B0008B11B0008B11B00086F
:10014000B11B0008B11B0008B11B0008B11B00085F
:10015000B11B0008B11B0008B11B0008B11B00084F
:10016000B11B0008B11B0008B11B0008B11B00083F
:10017000B11B0008B11B0008B11B00080000000003
:10018000B11B0008B11B0008B11B0008B11B00081F
:10019000B11B0008B11B0008B11B0008B11B00080F
:1001A000951A0008B11B0008A11A0008B11B00082D
:1001B000B11B0008B11B0008B11B0008B11B0008EF
:0801C000B11B0008B11B00088F
:1001D00010B5054C237833B9044B13B10448AFF381
:1001E00000800123237010BD2401002000000000C6
:1001F0005094030808B5034B1BB103490348AFF300
:10020000008008BD00000000280100205094030871
:1002100001F0FF01102A2BDB10F0070F08D010F8B7
:10022000013B013A8B422DD010F0070F42B3F6D1BB
:10023000F0B441EA012141EA014122F007047FF0D4
:1002400000070023F0E80256083C85EA010586EA2B
:10025000010685FA47F5A3FA87F586FA47F6A5FA67
:1002600087F68EB9EED1F0BC01F0FF0102F0070273
:1002700032B110F8013B013A83EA010313B1F8D11E
:100280000020704701387047002D06BF35460338FF
:10029000073815F0010F07D1013015F4807F02BF38
:1002A000013015F4C03F0130F0BC0138704700BF89
:1002B00081F0004102E000BF83F0004330B54FEA17
:1002C00041044FEA430594EA050F08BF90EA020F84
:1002D0001FBF54EA000C55EA020C7FEA645C7FEA17
:1002E000655C00F0E2804FEA5454D4EB5555B8BF3A
:1002F0006D420CDD2C4480EA020281EA030382EAAB
:10030000000083EA010180EA020281EA0303362D3C
:1003100088BF30BD11F0004F4FEA01314FF4801C0F
:100320004CEA113102D0404261EB410113F0004F21
:100330004FEA03334CEA133302D0524263EB4303D8
:1003400094EA050F00F0A780A4F10104D5F1200E76
:100350000DDB02FA0EFC22FA05F2801841F10001D1
:1003600003FA0EF2801843FA05F359410EE0A5F1A5
:1003700020050EF1200E012A03FA0EFC28BF4CF0D6
:10038000020C43FA05F3C01851EBE37101F000458C
:1003900007D54FF0000EDCF1000C7EEB00006EEB99
:1003A0000101B1F5801F1BD3B1F5001F0CD3490823
:1003B0005FEA30004FEA3C0C04F101044FEA44527A
:1003C00012F5800F80F09A80BCF1004F08BF5FEA01
:1003D000500C50F1000041EB045141EA050130BDE1
:1003E0005FEA4C0C404141EB0101013C28BFB1F5F3
:1003F000801FE9D291F0000F04BF01460020B1FA3E
:1004000081F308BF2033A3F10B03B3F120020CDA10
:100410000C3208DD02F1140CC2F10C0201FA0CF0EE
:1004200021FA02F10CE002F11402D8BFC2F1200C53
:1004300001FA02F120FA0CFCDCBF41EA0C01904009
:10044000E41AA2BF01EB0451294330BD6FEA040452
:100450001F3C1CDA0C340EDC04F11404C4F120023D
:1004600020FA04F001FA02F340EA030021FA04F34F
:1004700045EA030130BDC4F10C04C4F1200220FAA6
:1004800002F001FA04F340EA0300294630BD21FAE4
:1004900004F0294630BD94F0000F83F4801306BFAA
:1004A00081F480110134013D4EE77FEA645C18BF9E
:1004B0007FEA655C29D094EA050F08BF90EA020F35
:1004C00005D054EA000C04BF1946104630BD91EA2D
:1004D000030F1EBF0021002030BD5FEA545C05D130
:1004E0004000494128BF41F0004130BD14F580046F
:1004F0003CBF01F5801130BD01F0004545F0FE41E3
:1005000041F470014FF0000030BD7FEA645C1ABF17
:10051000194610467FEA655C1CBF0B46024650EA4E
:10052000013406BF52EA033591EA030F41F400217A
:1005300030BD00BF90F0000F04BF0021704730B500
:100540004FF4806404F132044FF000054FF00001D5
:1005500050E700BF90F0000F04BF0021704730B596
:100560004FF4806404F1320410F0004548BF40426B
:100570004FF000013EE700BF42004FEAE2014FEAC0
:1005800031014FEA02701FBF12F07F4393F07F4F9B
:1005900081F06051704732F07F4208BF704793F09E
:1005A0007F4F04BF41F40021704730B54FF46074B1
:1005B00001F0004521F000411CE700BF50EA0102B4
:1005C00008BF704730B54FF000050AE050EA01025D
:1005D00008BF704730B511F0004502D5404261EBCD
:1005E00041014FF4806404F132045FEA915C3FF40E
:1005F000D8AE4FF003025FEADC0C18BF03325FEAAB
:10060000DC0C18BF033202EBDC02C2F1200300FA5B
:1006100003FC20FA02F001FA03FE40EA0E0021FA80
:1006200002F11444BDE600BF70B54FF0FF0C4CF46E
:10063000E06C1CEA11541DBF1CEA135594EA0C0F20
:1006400095EA0C0F00F0DEF82C4481EA030621EA5B
:100650004C5123EA4C5350EA013518BF52EA033596
:1006600041F4801143F4801338D0A0FB02CE4FF048
:100670000005E1FB02E506F00042E0FB03E54FF078
:100680000006E1FB03569CF0000F18BF4EF0010E70
:10069000A4F1FF04B6F5007F64F5407404D25FEA6C
:1006A0004E0E6D4146EB060642EAC62141EA55511F
:1006B0004FEAC52040EA5E504FEACE2EB4F1FD0C61
:1006C00088BFBCF5E06F1ED8BEF1004F08BF5FEADF
:1006D000500E50F1000041EB045170BD06F0004691
:1006E00046EA010140EA020081EA0301B4EB5C043E
:1006F000C2BFD4EB0C0541EA045170BD41F4801136
:100700004FF0000E013C00F3AB8014F1360FDEBF5A
:10071000002001F0004170BDC4F10004203C35DA36
:100720000C341BDC04F11404C4F1200500FA05F3B9
:1007300020FA04F001FA05F240EA020001F000425A
:1007400021F0004110EBD37021FA04F642EB0601D0
:100750005EEA430E08BF20EAD37070BDC4F10C04FA
:10076000C4F1200500FA04F320FA05F001FA04F2BE
:1007700040EA020001F0004110EBD37041F10001AA
:100780005EEA430E08BF20EAD37070BDC4F12005B5
:1007900000FA05F24EEA020E20FA04F301FA05F21D
:1007A00043EA020321FA04F001F0004121FA04F2C5
:1007B00020EA020000EBD3705EEA430E08BF20EA95
:1007C000D37070BD94F0000F0FD101F000464000CF
:1007D00041EB010111F4801F08BF013CF7D041EA51
:1007E000060195F0000F18BF704703F00046520055
:1007F00043EB030313F4801F08BF013DF7D043EA26
:100800000603704794EA0C0F0CEA135518BF95EADB
:100810000C0F0CD050EA410618BF52EA4306D1D162
:1008200081EA030101F000414FF0000070BD50EA81
:10083000410606BF1046194652EA430619D094EA0B
:100840000C0F02D150EA013613D195EA0C0F05D1F5
:1008500052EA03361CBF104619460AD181EA030149
:1008600001F0004141F0FE4141F470014FF0000001
:1008700070BD41F0FE4141F4780170BD70B54FF09C
:10088000FF0C4CF4E06C1CEA11541DBF1CEA13551C
:1008900094EA0C0F95EA0C0F00F0A7F8A4EB0504FE
:1008A00081EA030E52EA03354FEA013100F08880F5
:1008B0004FEA03334FF0805545EA131343EA1263BE
:1008C0004FEA022245EA111545EA10654FEA002673
:1008D0000EF000419D4208BF964244F1FD0404F52C
:1008E000407402D25B084FEA3202B61A65EB030588
:1008F0005B084FEA32024FF480104FF4002CB6EB45
:10090000020E75EB030E22BFB61A754640EA0C00C4
:100910005B084FEA3202B6EB020E75EB030E22BF04
:10092000B61A754640EA5C005B084FEA3202B6EB45
:10093000020E75EB030E22BFB61A754640EA9C0004
:100940005B084FEA3202B6EB020E75EB030E22BFD4
:10095000B61A754640EADC0055EA060E18D04FEA92
:10096000051545EA16754FEA06164FEAC30343EA32
:1009700052734FEAC2025FEA1C1CC0D111F4801FFF
:100980000BD141EA00014FF000004FF0004CB6E7F8
:1009900011F4801F04BF01430020B4F1FD0C88BF97
:1009A000BCF5E06F3FF6AFAEB5EB030C04BFB6EBA2
:1009B000020C5FEA500C50F1000041EB045170BD95
:1009C0000EF0004E4EEA113114EB5C04C2BFD4EBC2
:1009D0000C0541EA045170BD41F480114FF0000E46
:1009E000013C90E645EA060E8DE60CEA135594EAC2
:1009F0000C0F08BF95EA0C0F3FF43BAF94EA0C0FC5
:100A00000AD150EA01347FF434AF95EA0C0F7FF439
:100A100025AF104619462CE795EA0C0F06D152EA8D
:100A200003353FF4FDAE1046194622E750EA410671
:100A300018BF52EA43067FF4C5AE50EA41047FF482
:100A40000DAF52EA43057FF4EBAE12E74FEA4102E5
:100A500012F5001215D211D56FF47873B3EB625210
:100A600012D94FEAC12343F0004343EA505311F037
:100A7000004F23FA02F018BF404270474FF00000C9
:100A8000704750EA013005D111F0004008BF6FF007
:100A9000004070474FF00000704700BF4FEA41022E
:100AA000B2F1E04324BFB3F5001CDCF1FE5C0DD9CC
:100AB00001F0004C4FEAC0024CEA5070B2F1004F16
:100AC00040EB830008BF20F00100704711F0804F19
:100AD00021D113F13872BCBF01F00040704741F4DE
:100AE00080114FEA5252C2F11802C2F1200C10FAE2
:100AF0000CF320FA02F018BF40F001004FEAC123C6
:100B00004FEAD32303FA0CFC40EA0C0023FA02F369
:100B10004FEA4303CCE77FEA625307D150EA01333F
:100B20001EBF4FF0FE4040F44000704701F000400F
:100B300040F0FE4040F40000704700BF7BB972B93E
:100B40000029BEBF00204FF0004106E008BF00288A
:100B50001CBF6FF000414FF0FF3000F0B5B9ADF1B0
:100B6000080C6DE904CE002909DB002B1ADB00F02C
:100B70004DF8DDF804E0DDE9022304B0704740429F
:100B800061EB4101002B1BDB00F040F8DDF804E0D5
:100B9000DDE9022304B0404261EB4101524263EBC4
:100BA00043037047524263EB430300F02FF8DDF834
:100BB00004E0DDE9022304B0404261EB41017047EB
:100BC000524263EB430300F021F8DDF804E0DDE975
:100BD000022304B0524263EB4303704753B94AB94E
:100BE000002908BF00281CBF4FF0FF314FF0FF3035
:100BF00000F06AB9ADF1080C6DE904CE00F006F81A
:100C0000DDF804E0DDE9022304B070472DE9F04788
:100C1000089D0C46002B4ED194468C458646B2FA70
:100C200082F262D94AB1C2F12003914020FA03F363
:100C30000CFA02FC194300FA02FE4FEA1C471FFAA5
:100C40008CF6B1FBF7F44FEA1E4307FB141143EA9D
:100C5000014304FB06F199420AD91CEB030304F19A
:100C6000FF3080F01281994240F20F81023C6344D0
:100C7000591A1FFA8EF3B1FBF7F007FB101143EA84
:100C8000014300FB06F69E420AD91CEB030300F168
:100C9000FF3180F0FC809E4240F2F98063440238CC
:100CA0009B1B40EA044000211DB1D3400022C5E94E
:100CB0000032BDE8F0878B4205D90DB1C5E90001CE
:100CC00000210846F5E7B3FA83F1002946D1A34293
:100CD00002D39042C0F0F080861A64EB0303012037
:100CE000002DE6D0C5E90063E3E7002A40F09080DC
:100CF000A1EB0C044FEA1C481FFA8CF70121B4FB4E
:100D0000F8F64FEA1E4308FB164443EA044307FB88
:100D100006F0984208D91CEB030306F1FF3402D217
:100D2000984200F2CD8026461C1A1FFA8EF3B4FBBF
:100D3000F8F008FB104443EA044300FB07F79F4226
:100D400008D91CEB030300F1FF3402D29F4200F2EA
:100D5000B0802046DB1B40EA0640A5E7C1F1200633
:100D60008B4022FA06F71F4320FA06FC04FA01F32F
:100D700043EA0C03F44000FA01F8380C4FEA134937
:100D8000B4FBF0FE1FFA87FC00FB1E4449EA044452
:100D90000EFB0CF9A14502FA01F20AD93C190EF139
:100DA000FF3A80F08480A14540F28180AEF1020ECE
:100DB0003C44A4EB09041FFA83F9B4FBF0F300FBF5
:100DC000134449EA044403FB0CFCA44507D93C192D
:100DD00003F1FF3067D2A44565D9023B3C4443EAA6
:100DE0000E40A0FB0293A4EB0C049C42CE469C4612
:100DF00051D34ED055B1B8EB0E0364EB0C0404FA9A
:100E000006F6CB401E43CC40C5E90064002150E704
:100E1000C2F1200320FA03F10CFA02FC24FA03F3D6
:100E200094400C434FEA1C4800FA02FE1FFA8CF76C
:100E3000B3FBF8F008FB1031230C43EA014300FB3D
:100E400007F1994208D91CEB030300F1FF362CD2BD
:100E500099422AD9023863445B1AA4B2B3FBF8F171
:100E600008FB113344EA034401FB07F3A34208D90A
:100E70001CEB040401F1FF3613D2A34211D902394D
:100E80006444E41A41EA004139E70446F0E60846C2
:100E900006E7C845AED2B9EB020E63EB070C01388A
:100EA000A8E73146EDE7034699E73046D4E7D64652
:100EB0007FE7634402384DE70646234608460FE7BE
:100EC000023E634430E700BF704700BF0149002085
:100ED0000DF0D4B95D20000808B564200BF0E0FBEC
:100EE000FBE7000010B594B01022002102240AA8EC
:100EF00037F07AFB1422002103A837F075FB1D4B55
:100F0000192108A81A6C42F080521A641B6C03F075
:100F100080530193019B184B1A6842F440421A60B7
:100F200001221B6803F440430293029B4FF4803379
:100F3000CDE908234FF48003CDE90E434FF4D87375
:100F4000CDE91244CDE910130AF070FB0AF00CF859
:100F50000F2300200721CDE903344FF4A053CDE93E
:100F600005034FF4805303A807930AF047FD14B01C
:100F700010BD00BF00380240007000402DE98048DD
:100F80009BB01022002101250DA84FF0104937F029
:100F90002BFB002408F0DAFDC74B0DA8ADF8345048
:100FA0001094CDE90E9308F0EFFD17230DA88DF8EE
:100FB00035508DF83C308DF8425008F0E5FD0420A6
:100FC00008F0D2FDBFF34F8FBFF36F8FBB4AC2F85B
:100FD0005042BFF34F8FBFF36F8F536943F4003319
:100FE0005361BFF34F8FBFF36F8FC2F88440BFF3DD
:100FF0004F8FD2F8803043F6E074C3F3C900C3F3D7
:101000004E335B0103EA0406014646EA8175013965
:10101000C2F86052F9D2203B13F1200FF2D1BFF396
:101020004F8F536943F480335361BFF34F8FBFF346
:101030006F8F08F0F1FC0024FFF754FF1422002109
:101040000DA837F0D1FA9E4B10219E481A6B01274C
:101050004FF010084FF0030B42F010024FF480598C
:10106000994D4FF0040A1A631A6B984E02F0100261
:101070000292029A1A6B42F002021A631A6B02F091
:1010800002020392039A1A6B42F001021A631A6B6E
:1010900002F001020492049A1A6B42F040021A63B1
:1010A0001A6B02F040020592059A1A6B42F4007224
:1010B0001A631A6B02F400720692069A1A6B42F0D7
:1010C00008021A631A6B02F008020792079A1A6B59
:1010D00042F480621A631A6B02F480620892089AE2
:1010E0001A6B42F020021A631A6B02F02002099276
:1010F000099A1A6B42F480721A631A6B02F48072B6
:101100000A920A9A1A6B42F080021A631A6B02F072
:1011100080020B920B9A1A6B42F004021A630022AF
:101120001B6B03F004030C930C9B09F079F801226C
:101130000821674809F074F801224FF4805165488E
:1011400009F06EF80022C021634809F069F8002216
:101150004021624809F064F80DA95A48CDE90D878D
:10116000CDE90F4B08F0D8FE08230DA95848CDE96A
:101170000D37CDE90F4408F0CFFE0DA95548CDE954
:101180000D97CDE90F4408F0C7FEC0220DA95248C3
:10119000CDE90D27CDE90F4B08F0BEFE40220DA989
:1011A0004E48CDE90D27CDE90F4B08F0B5FE4C4870
:1011B0004C49848001600762C0E9054408F010FDD5
:1011C00049492846C5E90014C5E90244C5E90A446D
:1011D000C5E90C4408F0A1FD39462846434D08F006
:1011E00055FE40234FF4C07241493046B460F4616B
:1011F000B462C6E905324FF40062C6E908294FF02F
:1012000002090722C6E900140DA9CDF84C90C6E9E1
:1012100003A8CDE90D92CDE90FA2CDE911B90AF0ED
:1012200043FF29464FF6FF7230460194C5E9007826
:10123000C5E902740AF058FF384608F011FC294647
:101240004FF6FF723046C5E90098C5E902740AF00E
:101250004BFF082329464FF6FF723046C5E900B818
:10126000C5E902340AF040FF4FF40C734FF6FF72E9
:10127000294601933046019BAF60EB60C5E900A8A9
:101280000AF032FF40F22B7130461A4D0AF04BFF44
:1012900043F2D2024FF020436420174E1A6008F048
:1012A000DFFB164B28462C62C5E90036C5E902472C
:1012B000C5E9044424E000BF1B00000300ED00E08A
:1012C00000380240000402402C0300205C01002092
:1012D000002802400020024000080240001802409E
:1012E0006C0300200030024000B0024040010020AA
:1012F000400100A08402002068474020005C0040BC
:10130000C5E9064409F0FAF82146284609F046FCEA
:10131000214628464A4D09F067FC342221460DEB50
:10132000020037F061F9474B2822352140F21520A1
:1013300040F2352C2C61AC8685F83640C5E9003486
:101340000923C5E905230B23C5E9071340F21B1345
:10135000C5E9090340F21D132846C5E90BC3C5E9D9
:10136000024409F0EDFCFF214FF4806E4FF4F0725F
:101370004FF4887328460D941893ADF864408DF8A7
:101380006640314DCDE912140521CDE914E14FF04D
:101390004041CDE90E24CDE9161222460DA9CDE932
:1013A000103909F098FD2948294B0462C0E900373B
:1013B000C0E902A84FF4A0634FF01808C0E9064442
:1013C000C0E9048309F0EAFE08F0A6F908F0ECF899
:1013D0005C2008F0A9FB00F0C1FB1E4B28462C62E4
:1013E000C5E90036C5E90247C5E90444C5E9064434
:1013F00009F084F82146284609F0D0FB214628460A
:1014000009F0F2FB00F0D6FB00F0D3FB0BF0BAF8CA
:10141000114A214611480BF0EFF8114B114A2146B1
:10142000186011480BF0E8F8104B114A214618607B
:1014300010480BF0E1F8104B18600BF0BDF8FEE718
:10144000DC01002000680140D8020020900100204B
:10145000001000A00054004014950308D90E0008A5
:1014600058010020F0940308C31B00085401002019
:10147000CC94030865360008500100200268034B35
:101480009A4201D108F0DABA704700BF001000405C
:10149000704700000D4B82B00F216FF001001A6CF5
:1014A00042F080521A641A6C02F080520092009A44
:1014B0005A6C42F480425A6400225B6C03F480430D
:1014C0000193019B02B008F0EFBA00BF0038024060
:1014D000026882B0084B9A420BD1D3F8302803F54A
:1014E000006342F480521A631B6B03F48053019330
:1014F000019B02B0704700BF003002400E4B07B5A1
:1015000002689A4215D1A3F5F04305215A201A6BBF
:1015100042F400021A6300221B6B03F400030193E0
:10152000019B08F0C1FA5A2003B05DF804EB08F003
:10153000EDBA03B05DF804FB00B0024010B5AAB0EC
:1015400004461422002104A837F04EF8842200211A
:1015500009A837F049F823682F4A93422DD14FF458
:10156000804309A809930AF015FB08B1FFF790FF23
:101570002A4C4FF440704FF0000C04A9236B43F049
:1015800002032363236B03F002030093009B1223E7
:10159000CDE9040303232248CDE906C304230893BD
:1015A00008F0BAFC236C43F400132364236C03F4A7
:1015B00000130193019B2AB010BD1A4A9342FAD13D
:1015C0004FF4803309A809930AF0E4FA08B1FFF751
:1015D0005FFF124C4FF4C07201211348236B43F09C
:1015E00080032363236B03F080030293029B122387
:1015F000CDE904230323CDE90613042304A90893AA
:1016000008F08AFC236C43F400032364236C03F486
:1016100000030393039BCEE70054004000380240D0
:1016200000040240005C0040001C0240144A08B55F
:101630000368934211D102F5F2324FF480711148E0
:10164000136C23F40013136408F04AFD4FF4007187
:101650000C48BDE8084008F043BD0B4A93420DD149
:1016600002F5EE3280210948136C23F40003136461
:1016700008F036FD4FF480710448EAE708BD00BF6A
:101680000054004000040240005C0040001C024086
:1016900070B5ACB004461422002106A836F0A4FFB1
:1016A000842200210BA836F09FFF2268484B9A4203
:1016B00040F08C800823052001240B934FF4C07365
:1016C00010930223CDE911304FF400330BA8CDE97C
:1016D00015430AF05FFA08B1FFF7DAFE3D4B00242C
:1016E00002250E265A6C06A93B4842F080625A64D5
:1016F0005A6C02F080620092009A1A6B42F010025B
:101700001A631A6B02F010020192019A1A6B42F4EA
:1017100000721A631A6B02F400720292029A1A6B38
:1017200042F480621A631A6B02F480620392039A95
:101730001A6B42F040021A631A6B02F040020492E4
:10174000049A1A6B42F480721A631B6B03F4807361
:101750000593059B1023CDE90635CDE908440A968B
:1017600008F0DAFB4EF6FF7306A91C480A96CDE98D
:101770000635CDE9084408F0CFFBF72306A9184841
:101780000A96CDE90635CDE9084408F0C5FB4FF4CB
:10179000805306A91348CDE906350923CDE908444D
:1017A0000A9308F0B9FB4FF4464306A90E480A967F
:1017B000CDE90635CDE9084408F0AEFB58202246B5
:1017C000052108F071F9582008F0A0F92CB070BD7F
:1017D000006801400038024000100240002402402E
:1017E000002802400018024000200240142200217C
:1017F0002DE9F0418AB004460DEB020036F0F4FE0C
:1018000022682C4B9A4251D12B4B022503240926E6
:101810009A6B4FF0040805A9284842F002020027FD
:101820009A639A6B02F002020192019A1A6B42F0DB
:1018300010021A631A6B02F010020292029A1A6BDB
:1018400042F002021A631A6B02F002020392039A38
:101850001A6B42F008021A631B6B03F0080304932F
:10186000049BCDE90585CDE9084608F055FB4023EA
:1018700005A91348CDE905350A23CDE90774099375
:1018800008F04AFB05A90E480996CDE90585CDE982
:10189000077408F041FB4FF4605305A90948099605
:1018A000CDE90535CDE9077408F036FB0AB0BDE88F
:1018B000F08100BF001000A000380240001002407C
:1018C00000040240000C0240026808B50B4B9A422B
:1018D00013D10B4A04210B48936B23F0020393634B
:1018E00008F0FEFB4421084808F0FAFB4FF4605171
:1018F0000648BDE8084008F0F3BB08BD001000A092
:10190000003802400010024000040240000C024077
:10191000F0B5002387B00393294B1E68002E4DD1EC
:101920000122022703250C241A6001A9254B264811
:101930009A6B42F001029A639B6B03F001030093E0
:10194000009B4FF68373CDE90454CDE9013708F0CD
:10195000E3FA48F2331301A91C480594CDE9013795
:10196000CDE9036508F0D8FA4CF2037301A91848D1
:101970000594CDE90137CDE9036508F0CDFA4FF6BE
:101980003F0301A913480594CDE90137CDE903656B
:1019900008F0C2FA282301A90F480594CDE90137C0
:1019A000CDE9036508F0B8FA082301A90B480594AE
:1019B000CDE90137CDE9036508F0AEFA07B0F0BD17
:1019C000900300200038024000100240001802403E
:1019D000000C024000140240001C024000080240BB
:1019E000214B1A6C42F0100270B51A6488B01B6C5F
:1019F000054601A903A803F010030293029B0AF015
:101A0000ABF8069B4BBB0AF097F8184E184B3360A7
:101A100040F2E733F360174BB0FBF3F3013B304682
:101A2000736000233361B360B3610AF0EDFC0446D8
:101A300080B930460AF090FB044658B9362008F0C9
:101A400065F80F2D0DD822462946362008F02CF8CF
:101A5000094B1D60204608B070BD0AF06DF84000CB
:101A6000D3E70124F6E700BF0038024094030020CA
:101A70000010004040420F003C0000207047FEE78D
:101A8000FEE7FEE7FEE7704701480AF0A7BB00BF8C
:101A900094030020014809F0C1B900BFDC01002017
:101AA000014808F068B900BF2C03002001207047EE
:101AB00008B536F05DFE162303604FF0FF3008BD19
:101AC00008B536F055FE16230360FEE770B50D46E7
:101AD00014460E46731B9C4201DC204670BDAFF3DA
:101AE000008006F8010BF5E770B50D4614460E466A
:101AF000731B9C4201DC204670BD16F8010BAFF34E
:101B00000080F5E74FF0FF3070474FF4005300209E
:101B10004B60704701207047002070470B4A034616
:101B2000116810B509B90A491160106809490A4CD1
:101B30000344091B8B4206D936F01AFE0C230360BE
:101B40004FF0FF3010BD1360FCE700BFE003002042
:101B5000C092012000000520000A0000704700002C
:101B6000DFF834D0002103E00C4B5B5843500431C4
:101B70000B480C4B42189A42F6D30B4A02E0002362
:101B800042F8043B094B9A42F9D307F05DFE36F068
:101B9000F5FDFFF7F3F9704700000520A0070408E2
:101BA000000000202401002024010020C092012018
:101BB000FEE7704708B501F02FF9BDE8084001F0D5
:101BC000B1B801F02BB94068704741607047000020
:101BD0004FF0E022D2F8FC3D43F08073C2F8FC3DA8
:101BE000054B064AD3F8B01F0A43C3F8B02F1A6852
:101BF00042F001021A607047001000E055CEACC5FB
:101C0000521A02EB5302B2FBF3F07047014B5868D3
:101C1000704700BF001000E0704710B504460C216B
:101C200035F0C6FA204610BD036810B51B6904469E
:101C300031B19847A26863689B1A0344636010BD82
:101C40009847A060FBE70000024B7020024A136037
:101C5000DB68184710000020E4030020704710B52F
:101C60000446042135F0A4FA204610BD73B50E4E8B
:101C70000D461446336813B9002002B070BD1B69CD
:101C8000702098470028F7D03368702001AA0DF122
:101C900006015B699847BDF8043001202B60BDF850
:101CA00006302360E9E700BFE40300207FB501238D
:101CB0008DF817204FF47A72CDE901320DF1170239
:101CC00000920A460146054808F0B0FD10B10348ED
:101CD00008F065FC07B05DF804FB00BF840200203B
:101CE0007FB500230A464FF47A718DF8173001232F
:101CF000CDE901310DF1170100910146054808F0C9
:101D00006FFE10B1034808F04AFC9DF8170007B0B9
:101D10005DF804FB84020020032823D8DFE800F0EC
:101D2000020B131A104B102110481A68B2FA82F2F3
:101D3000520908F075BA0C4B40215A68B2FA82F287
:101D400052090B48F5E7084B80219A68B2FA82F2F3
:101D50005209F6E7044B40210648DA68B2FA82F2EB
:101D60005209E6E7704700BFE80300200004024084
:101D70000008024000180240032823D8DFE800F0E2
:101D8000020B131A104B102110481A68003A18BFA2
:101D9000012208F045BA0C4B40215A68003A18BF9E
:101DA00001220B48F5E7084B80219A68003A18BFDA
:101DB0000122F6E7044B40210648DA68003A18BFD2
:101DC0000122E6E7704700BFE8030020000402405C
:101DD000000802400018024003280FD8DFE800F096
:101DE0000206090B1021064808F01FBA40210548D9
:101DF000FAE78021FBE740210348F5E7704700BF81
:101E000000040240000802400018024008B5032800
:101E100013D8DFE800F0020A0D0F1021084808F07F
:101E2000F9F9431E5842584108BD40210548F6E7DC
:101E30008021FBE740210448F1E70020F1E700BFE3
:101E400000040240000802400018024070B5084D2E
:101E500000240126E0B2FFF7D9FF18B12B68012B4F
:101E600018BF2E6001340435052CF3D170BD00BFBE
:101E7000E8030020012380F8781080F8793070475B
:101E80000020704741640039024B18BF01211970CE
:101E9000704700BF8786012000207047836B0BB11D
:101EA0000846184770474FF6FF7070474068036850
:101EB0009B6918477047000038B5044601F0FCF8EC
:101EC000084923682046084DD3F88C3098470023F2
:101ED000284684F84A30FFF77BFE0123256184F809
:101EE000703038BD000000C0F803002001F086B853
:101EF00001F08AB870B501F009F910490023C1F862
:101F00008430BFF34F8FD1F8803043F6E074C3F3D1
:101F1000C900C3F34E335B0103EA0406024646EAF6
:101F20008275013AC1F87452F9D2203B13F1200FA7
:101F3000F2D1BFF34F8FBFF36F8F70BD00ED00E0A4
:101F400001F0E6B801F036B801F008BA01F010BAB5
:101F500001F03AB810B504461BF076F92368204624
:101F6000D3F8AC30BDE8104018471AF0CABB10B522
:101F700004467C2135F01CF9204610BD90F8341041
:101F80000D4B10B590F878401A788C4209D03AB9C8
:101F90000A490B4A08881488108001220C801A70A4
:101FA00010BD002AFCD0064A0449148808880C8019
:101FB00010800022F3E700BF808601207E8601208A
:101FC0007C86012070B50D46194635B9094B40F2A3
:101FD000D221094A094836F031F8C0E90F52003AD7
:101FE000074B18BF01221A700368BDE87040D3F890
:101FF0008C30184778950308B0950308FE950308C0
:102000008686012008B5094B1B888B4203D8084BF4
:102010001B88934205D9074B9E21074A074836F093
:102020000DF8074B1980074B1A8008BD7C860120EC
:102030007E86012043960308A6960308FE950308B2
:102040008286012084860120034690F87A0018B128
:10205000586803681B68184770470000014608B5B8
:10206000034B186801B101211BF008F9012008BDDC
:1020700088860120034B00225A609A60024A1A6047
:10208000704700BFF803002040950308012100229B
:1020900008B508460AF0BAFB0A4B186028B90A4B83
:1020A00028210A4A0A4835F0C9FF002204210120EC
:1020B0000AF076FC074B186018B9074B2C21034A2D
:1020C000F0E708BD08040020C49703080D98030832
:1020D0003C9803080404002083980308024B4FF047
:1020E000FF3118680AF0EABB08040020014B1868A9
:1020F0000AF020BC08040020024B002118680AF0F6
:10210000DDBB00BF08040020FFF7F0BF0023034839
:1021100003491A4600680AF089BC00BF0404002085
:102120000400002013B50023074C01A91A462068BB
:102130000AF0BEFC4FF0FF33002201A920680AF02C
:10214000B7FC02B010BD00BF0404002003685B6C44
:1021500018470120704703689B6A18470D4B82B0EF
:102160001A6B42F400021A631A6B02F40002019225
:10217000019A1A6942F400021A611A6922F40002F3
:102180001A61054B054A1A614FF08062044B9A6050
:1021900002B07047003802402C0300202D240008B4
:1021A00000E100E040F2EF3070470000054B4FF0D7
:1021B00080620360044BC3F88820BFF34F8FBFF3E6
:1021C0006F8F70471C9A030800E100E010B50446C9
:1021D0004FF45A61FFF7EAFF204634F0E9FF20464A
:1021E00010BD000008B50A2809D8DFE800F0061085
:1021F0000E080808081010101000022008BD054B3A
:102200008621054A054835F019FF0020F6E7012030
:10221000F4E700BFC5980308E09803082B9903086A
:1022200038B50C46887FFFF7DDFF174BA58AE28A99
:10223000586342EA054221695A64628BD963521B92
:102240001A642568082D0ED19A611A6158620F4AE6
:10225000207F42EA0062DA61E2681A620C4A596140
:10226000D9601A6038BD0022D8611A61E1680A0A93
:102270004809C1F3C40102F4784200F4FC6002434F
:102280000A439A63034AECE700B0024009000100E8
:10229000010202000102030008B50B280BD8DFE899
:1022A00000F00612100A0A0A0A08080808080220A4
:1022B00008BD0520FCE7054B6521054A054835F0BA
:1022C000BDFE0020F4E70120F2E700BFC598030837
:1022D000709903082B9903082DE9F04191F81D80AE
:1022E0000C464046FFF7D8FFA77F05463846FFF764
:1022F000D3FF06463846FFF775FFA18A628B434B32
:10230000521A1A649A61228B521A1A61E28A58632D
:1023100042EA014221695A646268D963DA6020683E
:10232000802828D0227F0FD8202866D0402864D06B
:1023300004281AD045EA0265344BB84545F4003507
:10234000DD6160D0324A44E0B0F5807F04D0B0F562
:10235000007FEFD12F4800E02F4840EA0262DA61A7
:10236000E2681A625E62596132E045EA026242F452
:102370000032DA61F6E7A068021DDA62227F45EAE0
:10238000026545F40035DD615E625961017841B155
:10239000012921D0214B4FF48871214A214835F081
:1023A0004DFEDA69418822F47F42013922F01002A1
:1023B00042EA01220121DA61144BDA6942F020027B
:1023C000DA61DA699206FCD410229A600029B9D049
:1023D000154A1A60BDE8F081B2F1FF01DA69408860
:1023E00022F47F4218BF0121013822F0100242EA94
:1023F000002242F01002DA61DEE745EA0262034B96
:1024000042F40032B5E740F20122E2E700B00240B8
:1024100001020100090002000A000200BA99030843
:10242000D49903082B99030801020200024B1B6890
:10243000586803685B6918478886012070B50446B0
:102440000A4B0C30002625466022606026726672B8
:1024500045F8203B29461BF067F804F55A63EE6007
:1024600024359D42FBD1204670BD00BF1C9A030855
:10247000034B1A68D207FCD423229A60704700BF2E
:1024800000B0024030B5104C2568ED07FCD4232580
:102490000904FF2BA56041F001014FF002056563BF
:1024A0006164E0630AD00949656241EA0363E3615C
:1024B000074B22626061E060236030BDE561039BF1
:1024C000A363044BF8E700BF00B00240090001001D
:1024D00001000200010003004069704790F84400C9
:1024E0007047036B23B9C06A003818BF01207047DA
:1024F0000120704780687047043010B50C460FC843
:1025000084E80F0010BD704708B5034A40F212215D
:10251000024B034835F092FD649A03086BB8030838
:10252000BF9A030810B50446482134F041FE204606
:1025300010BD00002DE9F0431C46436BADF51F7D37
:1025400005460E461746002B37D0002203A8DFF8B9
:10255000A890CDE9013212F07DFB4FF4F4725021C6
:10256000249024A80CF02BFB3A46314624A80DF009
:102570007FFA012124A80CF01DFC022324A88DF869
:10258000D8300CF0B8FCBDF898322B9ABDF89C629C
:102590009342A89F28BF1346419A964203EB4308F3
:1025A000A7EB430728BF1646479B9E4209D824A89D
:1025B0000CF022FC24A80CF04FFB0DF51F7DBDE8AC
:1025C000F083012201A924A80CF0DEFC6B6B03EB65
:1025D0000800984201D83C44E6E759789A78C90047
:1025E00009EA022201F4FC610A4313F8031B42EAE0
:1025F000D10224F8022BECE700F8FFFF0A4A026040
:102600000022C0E90522C0E90722C0E90922C0E989
:102610000B22C0E90D12C0E90F2280F84420C0E966
:102620000322C0E901227047989D030810B40C46AC
:1026300011461A46036B3BB1036C806BE41A2044CD
:102640005DF8044B35F0E7BFC06AF8E7036B10B5DF
:1026500073B1036C826BC91A5318525C98785C781A
:102660000004DB7840EA0420104340EA036010BD18
:10267000C36A5858FBE7036B43B1036CC91A836BF9
:102680005A18585C527840EA02207047C36A585A78
:102690007047000070B50446006B0D461646D8B171
:1026A000E36B934208D209230D4A65210D4884F853
:1026B00044300D4B35F0C2FC0368DB689847206B53
:1026C0003246A16B03681B69984710B90D2384F843
:1026D0004430A06B256470BDE06A0844FBE700BF8E
:1026E000239B0308BF9A0308109B03082DE9F843B6
:1026F000436904462BB9234BAA21234A234835F0CA
:102700009DFC08228169FFF7C5FFA16943F23006ED
:1027100046F2643704312046FFF798FFA369184456
:10272000A36A00F108029A4206D3012300206361E4
:10273000236AA361BDE8F883636909300822013385
:1027400020F0010120466361A161FFF7A3FFD4F8E7
:10275000189020464946FFF78EFF09F10201804696
:102760002046FFF788FF09F1040105462046FFF7E0
:102770006DFFB045D2D1BD42D0D10028CED00120CE
:10278000D8E700BF659B0308AE9B0308BF9A030808
:102790002DE9F04F0446ADF51F7D8A461646816946
:1027A00008229846FFF776FFA7692046391DFFF7F4
:1027B0004DFF07F10801024605462046FFF76AFF74
:1027C000636B074633B93C4B40F2AB113B4A3C4884
:1027D00035F034FC002203A8CDE9013212F03AFAB8
:1027E0004FF4F4725021249024A80CF0E8F92A4602
:1027F000394624A80DF03CF9012124A80CF0DAFA9E
:10280000022324A88DF8D8300CF075FBBAF90250D9
:10281000479BAB4229D3BAF900904FEA4808BAF86F
:1028200004702B9B08FB05664F44BAF80250DFF892
:1028300094B03FB29F4228BF1F46BAF8063009EB5A
:10284000490A1D44419B2DB29D4228BF1D46479B0E
:10285000AB4210D324A80CF0CFFA24A80CF0FCF95A
:1028600001200DF51F7DBDE8F08F012201A924A8EC
:102870000CF08AFBCCE7012201A924A80CF084FB10
:10288000626B49465244B94202F1030201D3464405
:10289000DDE712F8020C12F8013CC0000BEA03233A
:1028A00000F4FC60034312F8030C43EAD00326F85B
:1028B00011300131E7E700BFE19B0308379C0308B3
:1028C000BF9A030800F8FFFF0129036838BF012100
:1028D000DB6A70B50D4604469847A84204D22368C7
:1028E0002046DB6A984705466B1EE66910222046A3
:1028F00006EB031606F10801FFF7CCFE06F1100106
:102900002046FFF7A3FE236A043B0344C4E90553B2
:1029100070BD0000002148222DE9F041044681618C
:1029200080F84410FFF7B6FEA6690423624A3146D8
:102930002046FFF77BFE40B10323604AF22184F872
:1029400044305F4B5F4835F079FB06F10801042302
:102950005D4A2046A161FFF769FE30B10423574A62
:10296000FA2184F84430594BECE706F10C010423BA
:10297000574A2046A161FFF759FE074638B10523A3
:102980004E4A40F2011184F84430524BDAE706F126
:1029900010012046FFF75AFE054620B94E4B40F283
:1029A0000711464ACEE706F1140804234B4A204695
:1029B0004146FFF73BFE002849D0062384F8443007
:1029C0000423474A06F118012046FFF72FFE00288E
:1029D0003FD0072384F844304544424F0C22204620
:1029E0002946FFF757FE05F1080604233A4620461C
:1029F0003146FFF71BFE94F84430002848D0002BE6
:102A000048D1A36AAB4249D805F10C0304352046EE
:102A1000A3612946FFF71AFE30442946606220462A
:102A2000FFF714FE0644042220463146FFF732FE2B
:102A300004232D4A31462046FFF7F8FD002838D1FF
:102A40000123E6616361A3692362BDE8F081012788
:102A5000B6E7002FC0D006F120012046FFF7F6FDB3
:102A60004FF47A7306F13001B0FBF3F0606020465A
:102A7000FFF7ECFD06F14001A0602046FFF7E6FD00
:102A800006F14401E0602046FFF7E0FD2061A3E786
:102A9000002BB9D00A2384F84430D6E7291D2046FC
:102AA000FFF7D4FD85190C2220462946FFF7F2FDD9
:102AB00099E70B23EFE700BF919C0308AF9C030845
:102AC000969C0308BF9A0308DC9C0308E19C03085A
:102AD000F99C0308FE9C0308149D0308209D03082D
:102AE000259D03082A9D03082F9D0308C0E90A219C
:102AF00000220263FFF70EBF10B50023044608460C
:102B0000E3620B6821639B689847A0622046BDE89A
:102B10001040FFF7FFBEF0B4069FBDF81050BDF89F
:102B2000146032B12BB10495CDE90567F0BCFFF715
:102B300001BDF0BC704700002DE9F04F9946436994
:102B400085B004460F4690462BB9294B7721294A78
:102B5000294835F073FA08228169FFF79BFDA669C1
:102B600020463146FFF787FDB11C83462046FFF71C
:102B700082FD311D82462046FFF768FD06F10801FF
:102B8000A36A054642189A4226D243F230039B4577
:102B900017D146F264339A4513D190B10246A16130
:102BA0002046FFF777FD0E9B01462A462046CDF8CA
:102BB0000080CDE901933B46FFF7ADFF6369013328
:102BC0006361A3692B4405B908330133626A23F0BA
:102BD00001039342A36109D1012301206361236AA8
:102BE000A36180F0010005B0BDE8F08F0020F8E798
:102BF000659B0308349D0308BF9A030801207047B2
:102C00004020704700EB81100830704700EB8110C6
:102C1000083070470120704742F6A020704742F606
:102C2000A02303FB01000830704742F6A02303FBFA
:102C3000010008307047012070471020704700EBFA
:102C400001100830704700EB01100830704708464B
:102C500001F0ECB8034B10B50446036019F004F81A
:102C6000204610BD409E030810B50446FFF7F2FF52
:102C70004821204634F09CFA204610BD034B10B585
:102C80000446036018F0F0FF204610BD0C9E0308B8
:102C900010B50446FFF7F2FF42F6A821204634F0B3
:102CA00087FA204610BD0000034B10B504460360B0
:102CB00018F0DAFF204610BDD89D030810B5044671
:102CC000FFF7F2FF1821204634F072FA204610BDBB
:102CD000094B10B50446036000F52B501430FFF784
:102CE000B9FF04F12C00FFF7C9FF04F11400FFF74E
:102CF000DBFF204610BD00BF749E030808B50248E4
:102D0000FFF7E6FF08BD00BFD812002010B504464B
:102D1000FFF7DEFF43F2F831204634F049FA20464F
:102D200010BD00002DE9F34100F03AFD00240546F6
:102D300000F03AFD2346014622462846009426F03C
:102D40006BF8284B284A2046284D1A6001F0ECFD0C
:102D5000274B284A28489A6025F0C6FF2B68BFF306
:102D60005B8FDB0737D4284634F024FA98B3234C22
:102D7000234B04F1140004F12C08236000F52B57B9
:102D80006060C4F8088007F5F966E760266118F00E
:102D90006DFF1C4B4046636118F068FF1A4B3846C4
:102DA000E36218F063FF04F50053184A03F61C3081
:102DB000C3F8D42A05F0C6FC224607F14801304684
:102DC00005F0BEFB304601F031F8114835F054F9FA
:102DD000284634F0FBF90F4802B0BDE8F041FFF798
:102DE0006BB800BFEC86012088040020D4120020BC
:102DF000A80400208C04002008000020D812002025
:102E0000749E0308D89D03080C9E0308409E030887
:102E1000FD2C00080C04002070470000014819F048
:102E2000DABC00BF0C04002070B5244E244B254CA6
:102E30003046254D2360FFF701FB28462AF0C6FAED
:102E4000224823F085FC224B00224FF48071214858
:102E50001A8683F858205A6683F870205A67DC6017
:102E6000C3E912121C49C3E91A121C4999671C498B
:102E70000B604FF4F07101801A4801804FF48871A3
:102E80001948C3E90422C3E90622C3E90822C3E9B9
:102E90000A22C3E90E22C3E91022C3E91422C3E9BE
:102EA0001722C3E901650180104883F834200180AE
:102EB0000F490A700F4A1A6070BD00BF300500202C
:102EC00068950308D0120020A80400208C0400207C
:102ED0000C0400207C86012001000001000001019B
:102EE00088860120828601207E860120848601203A
:102EF00080860120F49603080148FFF757B900BF08
:102F0000300500200020704781807047C1807047E5
:102F10000181704741817047704770477047704723
:102F2000704710B4C4880368121B84885B6D091B4A
:102F300012B25DF8044B09B218474FF6FF73838154
:102F40004FF0FF3303621368C361106070470020C5
:102F500070478B88838001207047704780F8261067
:102F6000704790F826007047002210B5B1F908406C
:102F7000B1F90A10028042808480C18010BD002215
:102F8000028042808280C28070470177704780ED66
:102F9000080A704780F82410704780F825107047A1
:102FA00001207047983070478C30704784307047EC
:102FB00070470000034B902283F85A2383F858236C
:102FC000704700BF00E100E0094A0A49D3680A4897
:102FD000C3F30A03013B9BB20B801169C1F30A01E1
:102FE000013901801364536B43F00103536370474D
:102FF00000680140D2460020D0460020014BD3F8A3
:10300000AC00704700680140024B0122C3F8AC10CD
:103010005A62704700680140124A5369DB0370B579
:103020001ED50023C2F88430BFF34F8FD2F8803012
:1030300043F6E074C3F3C900C3F34E335B0103EA04
:103040000406014646EA81750139C2F87452F9D284
:10305000203B13F1200FF2D1BFF34F8FBFF36F8FDF
:1030600070BD00BF00ED00E0704770477047382327
:10307000002201FB0333C25490F838300BB9036CC3
:1030800083647047704780F84C10704710B5044651
:103090002C2134F08DF8204610BD10B5044658217F
:1030A00034F086F8204610BD10B50446BC2134F03B
:1030B0007FF8204610BD000038B5044619F077FBB4
:1030C00023685D6E22F016FA01462046A847236861
:1030D000084A2046D3F888500023A2F57F31A8473C
:1030E000054B064A5A60064A1A649A644FF4FF2256
:1030F0005A6438BD00F807C094470020EC47002010
:1031000000F40BC019F03ABB19F044BB19F0FFBA38
:1031100019F06FBC90F8252012B103685B6918475D
:103120007047000008B531B1044B40F29711044AD2
:10313000044834F083FF90F8390008BD809E0308EE
:10314000949E030821A0030810B531B1064B40F24C
:103150009111064A064834F071FF40681146036831
:10316000BDE810401B6B1847809E030863A003084E
:1031700021A0030808B529B1034B7A21034A04486A
:1031800034F05CFF006908BD809E030814A20308A8
:1031900021A0030808B529B1054B8321054A06483B
:1031A00034F04CFF41618160C0E9063208BD00BFC8
:1031B000809E0308CCA3030821A0030810B5044691
:1031C00029B1274BA421274A274834F037FF052A85
:1031D00034D8DFE802F003292F34393E4068036811
:1031E0001B69984750B34FF0FF31606D09F0B2FA98
:1031F0000023012294F83E1084F83B3084F83920F3
:10320000A360636101B1226284F83E306362E36AC5
:103210002BB90123206D84F83A3009F08BFB606DE7
:10322000BDE8104009F0C6BA002380F8393084F8B0
:103230003E3003E0036200238360436110BD0362FC
:10324000002383604361F2E7002380F839300123D3
:10325000EDE7003B18BF012380F83D30EEE700BFEB
:10326000809E03088BA5030821A0030890F8252061
:103270001AB190F8242002B11860704770B5044666
:10328000164629B1314BE721314A324834F0D6FE97
:1032900090F8393033B1304B1B6893F86B20436999
:1032A00013444361E36A002B4DD0E169D4E9053250
:1032B0005343A2684A43934220D2236A002B42D050
:1032C0004FF0FF31606D09F045FA236A0BB100231E
:1032D000E362E36AFBB90125606D09F06BFA94F8CB
:1032E00039300BB9236A3BB1E36A2BB90123206D56
:1032F00084F83A3009F01EFB284670BD94F84C0063
:103300000028DDD09B1AB3FBF1F2994298BF02F17D
:10331000FF326262D4E7002294F83C50A362304648
:10332000E262E2682261A2680132A260336333681C
:103330005B699847002DCED194F83D30002BCBD15E
:1033400084F83950C8E70125C9E700BF809E03080B
:1033500062A7030821A0030888860120034B4FF0D1
:1033600080629A604FF080729A60704700E100E0DE
:10337000084B4FF08062C3F88820BFF34F8FBFF334
:103380006F8F4FF08072C3F88820BFF34F8FBFF369
:103390006F8F704700E100E038B5034690F83800C1
:1033A00038BB01229860D8609A634FF480725861EC
:1033B0009A874FF4F0729861D861186258629862E7
:1033C000D8621863586383F83E00CA864FF4887247
:1033D00081F834000A8708639A6C186102F5FF24AB
:1033E000D3E9101529448C420AD9084B5821084AC0
:1033F00003E0084B40F2F511074A084834F01EFE7E
:103400001A6302F57F329C645A6338BDC0AA030870
:1034100000AB030806A9030836A9030821A0030886
:10342000002370B5124E05468380124B036033684B
:1034300093F858200AB1D86C00B998680368DB6A21
:1034400098473368B0FA80F4D86C640930B10368E7
:10345000DB6A9847002808BF44F001042CB9064BEA
:103460002C21064A064834F0E9FD284670BD00BF0D
:1034700088860120A8AD0308A6AC030804AD0308A4
:103480003DAD030870B5244E3568BFF35B8F15F072
:1034900001053FD1304633F08DFE00283AD01F4C55
:1034A0001F4B04F134002561E584A562A585C4E9BC
:1034B0000035C4E9025523F0AAFB04F158001CF0C2
:1034C00007F9184B2046A365174B40F8843BFFF7DC
:1034D000A7FF164B1648C4F884302433C4F8905024
:1034E000C4F88C306423C4F89C50C4F8A850C4E9D4
:1034F00028350023C4F8AC30C4F8B030C4F8B43078
:10350000C4F8B8300B4BC4F8983034F0B5FD3046F1
:1035100033F05CFE014870BDD4460020D846002040
:10352000B0ED0308C8AD030840AE030864ED03081E
:10353000B12F000844ED030810B5144C236823B3E1
:10354000134B144A1B6C11888B4213D1124B1988F0
:1035500007F0EEFC226892F86A30013382F86A3094
:10356000FEF7D4FD206819F06FFE0020BDE8104082
:10357000FEF7D2BB07F0DCFC206803681B6A9847A3
:103580000020BDE81040FEF7F7BB10BD8886012083
:1035900000680140D2460020D04600202DE9F743C4
:1035A00004464FF4707894F83A304FF0FF31002B16
:1035B00031D0606D09F0CEF8276BA36ABB4200D111
:1035C000676B266A656856B32B68314628465B6A86
:1035D00098470023236284F83B30606D09F0EAF8D5
:1035E0002B684FF4F0723946CDF8008028465E69AA
:1035F0004FF48873B0474FF0FF310646606D09F015
:10360000A9F894F83B30E3B1002384F83B30606DB7
:1036100009F0D0F8C7E7206D09F050F9C3E7636AF5
:10362000002BDAD02B682846D3E909939847616AC2
:1036300001442846C847A368626A66621344A360CF
:10364000CBE7E7625EB12B6828469B6A9847013852
:103650000023E06084F83C6084F83A30D7E701202A
:10366000F6E70000014808B5FFF798FF94470020EF
:103670000368042270B504465E6A00230D46B04715
:103680004FF0FF31606D09F065F8382303FB054208
:10369000D16A09B10021D16203FB0545012385F8F8
:1036A0003B30002385F83930606DBDE8704009F08B
:1036B00081B838B500EB810304460D4611465868C1
:1036C0000368DB68984729462046FFF7D1FF38BDDD
:1036D00070B50D461146044600EB8502506802683D
:1036E00096681A46B04729462046FFF7C1FF70BDCD
:1036F00038B5164900251648FEF780FF154C164BC5
:1037000001202A46294623604FF48073A564A387CD
:1037100084F84C0084F83E50C4E91055C4E91455AF
:10372000C4E90155C4E90355C4E90555C4E9075581
:10373000C4E90955C4E90B55C4E90D5509F066F80B
:103740002065284608F0C4FF606538BD3448002075
:10375000EC470020944700208CAE0308704708B562
:10376000042914D8DFE801F00F03070B0F0001F064
:1037700027F9406808BD01F023F98068FAE701F0F5
:103780001FF9C068F6E701F01BF90068F2E70020B6
:10379000F0E710B50446042133F00AFD204610BDC1
:1037A00000487047D8AE03080E20704713B50024B8
:1037B00051B1036801AA01948DF803409C680DF192
:1037C0000303A04702B010BD0846FBE7C08970475D
:1037D000008A7047C088704780887047807A00F000
:1037E0007F007047807AC009704700207047000052
:1037F0009FED010A704700BF00000000704710B540
:103800000446082133F0D4FC204610BD70477047B1
:1038100000F598730868496803C37047704770479C
:103820004160704770470000064BC0F84801C0F87F
:103830004C310023C0F8503100F5A273C0F840317C
:10384000704700BF993A0008012303727047704720
:1038500070477047704710B441680346C2689B6860
:10386000541001EB6200D20748BF0A595DF8044BBF
:1038700048BFD35818470346406830B19A681AB910
:10388000D86800F0010070470120704710B5044669
:103890000C2133F08DFC204610BD10B504461021DC
:1038A00033F086FC204610BD10B504464FF4AE71CF
:1038B00033F07EFC204610BD10B50446402133F0A5
:1038C00077FC204610BD10B50446402133F070FC53
:1038D000204610BD10B521F00DFE0368BDE8104074
:1038E000DB6B1847054B01461B782BB1406818B1BC
:1038F00003680C315B6E1847704700BF8786012054
:10390000054B01461B782BB1406818B103680C3198
:103910005B6E1847704700BF87860120037A70B539
:103920000546BBB940680368DB69984704463CB963
:10393000686805F10C010368BDE870401B6E18470C
:10394000E18820466B8FC91A236809B25B6B9847E0
:10395000A469ECE770BD037A70B50546BBB9406851
:103960000368DB69984704463CB9686805F10C01B7
:103970000368BDE870401B6E1847E18820466B8FD6
:10398000C91A236809B25B6B9847A469ECE770BD5C
:1039900010B50446D0F8400158B10368DB68984779
:1039A00038B1D4F8400103689B6898470023C4F8F5
:1039B000403110BD70B5044690F83900013094F8DC
:1039C0003830C0B2984284F8390005D901232372F7
:1039D000002384F8393070BDB4F93A20002123F077
:1039E0006FFEC30706D500284FF6FF73C8BF01233B
:1039F000184400B2638AC01AA08760680368DB6954
:103A0000984705462DB960680368BDE870405B695A
:103A10001847E9882846A38F19442B6809B25B6BC5
:103A20009847AD69EEE770B5044690F8390001306B
:103A300094F83830C0B2984284F8390005D901238F
:103A40002372002384F8393070BDB4F93A20002184
:103A500023F036FEC30706D500284FF6FF73C8BF14
:103A60000123184400B2638AC01AA0876068036803
:103A7000DB69984705462DB960680368BDE870406A
:103A80005B691847E9882846A38F19442B6809B257
:103A90005B6B9847AD69EEE72DE9F14FD0E9556AC8
:103AA0000746B06803681B6A984742F2536398421E
:103AB00005D8444BA321444A444834F0BFFA706807
:103AC00003681B6A98470F2803D8414BA4213E4A3C
:103AD000F2E7F06803681B6A98470B2803D83D4B50
:103AE000A521394AE8E7DFF8F49021F003FD04301E
:103AF00021F025FDD9F8000010B10368DB68984774
:103B0000D9F8000010B103681B689847DFF8D0802F
:103B1000D8F8000010B103685B699847D7F83C01FA
:103B200010B103685B689847D8F8000010B10368CB
:103B30001B689847D7F83C0110B103689B68984709
:103B4000F06800214FF0000B03685B6A9847224B36
:103B50000446C0F804B080F808B059460360B06865
:103B600003685B6A9847054605F02EFB7068594666
:103B700003685B6A98470646294605F0B5FA331D87
:103B8000C7F83C612846CAF804302B68C6F808A07C
:103B9000DB68C9F80040C8F80050EE639847336806
:103BA00030461B6898472146284623F083FD23684A
:103BB00020461B699847236820465B6901B0BDE831
:103BC000F04F184700B003088EB0030868B103082F
:103BD000AFB1030852B2030834B70308D0860120FE
:103BE000CC8601202DE9F0411D46036804461646A7
:103BF0001B6BBDF9187098472368314620465B6BF4
:103C000098472368294620469B6B98472368394686
:103C10002046DB6BBDE8F041184700002DE9F74F67
:103C2000D0E9556A0746B06803681B6A984742F2B4
:103C30005363984205D8544BA321544A544834F056
:103C4000FDF9706803681B6A98470F2803D8514B29
:103C5000A4214E4AF2E7F06803681B6A98473F28A0
:103C600003D84D4BA521494AE8E7DFF83C9121F004
:103C700041FC043021F063FCD9F8000010B1036866
:103C8000DB689847D9F8000010B103681B689847B3
:103C9000DFF81881D8F8000010B103685B69984715
:103CA000D7F83C0110B103685B689847D8F800006A
:103CB00010B103681B689847D7F83C0110B103683E
:103CC0009B689847F068002103685B6A9847002268
:103CD000324B054642600446027245F80C3B2846CA
:103CE0001EF090F81423002223872D4BA2871B7807
:103CF000002B35D101232372B068002103685B6A71
:103D00009847054605F060FA7068002103685B6A11
:103D100098470646294605F0E7F9331DC7F83C6188
:103D20002846CAF804302B68C6F808A0DB68C9F832
:103D30000040C8F80050EE639847336830461B686F
:103D400098472146284623F0B5FC236820461B6986
:103D50009847236820465B6903B0BDE8F04F1847D9
:103D6000DFF84CB011462846BBF9003000930D4BEC
:103D7000B3F90030FFF736FF28461DF0BFFFBBF850
:103D800000306387B8E700BF00B00308F5B203084E
:103D900068B10308AFB1030852B203087CB7030847
:103DA000878601207C860120D0860120CC860120D8
:103DB0007E860120044B1B6893F858200AB1D86C0A
:103DC00000B99868704700BF88860120F8B504469E
:103DD00017460E4621F054FC104B00251C60294666
:103DE0000F4B23600F4BC4E951350F4B1868C4E9E2
:103DF00053550368C4E94F559B68C4E95576984705
:103E0000284600F091FDFFF7D5FF2BF010F9FFF7E2
:103E1000D1FF2BF087F92046F8BD00BFDC860120DA
:103E2000E0B60308C8B6030888860120064BC0F830
:103E30004801C0F84C310023C0F8503100F5A2739E
:103E4000C0F84031704700BF993A0008064BC0F8EF
:103E50004801C0F84C310023C0F8503100F5A2737E
:103E6000C0F84031704700BF1D3C0008064BC0F849
:103E70004801C0F84C310023C0F8503100F5A2735E
:103E8000C0F84031704700BFB9410008064BC0F888
:103E90004801C0F84C310023C0F8503100F5A2733E
:103EA000C0F84031704700BF7D400008064BC0F8A5
:103EB0004801C0F84C310023C0F8503100F5A2731E
:103EC000C0F84031704700BF413F000803685B6A9B
:103ED00018470000F7B5164B002605460446466015
:103EE0000F46067245F80C3B28461DF08BFF114B20
:103EF00084F838701B7884F83960A68723B90123C9
:103F00002372204603B0F0BD0B4F3246314628469F
:103F1000B7F900300093094BB3F90030FFF762FEA8
:103F200028461DF0EBFE3B885B426387E9E700BF54
:103F300058B70308878601207E8601207C860120F1
:103F40002DE9F047D0E9556A0746B06803681B6A57
:103F5000984742F69F23984205D8414BA321414AF6
:103F6000414834F06BF8706803681B6A98470F2863
:103F700003D83E4BA4213B4AF2E7F06803681B6A72
:103F800098473F2803D83A4BA521364AE8E7DFF89F
:103F9000E49021F0AFFA043021F0D1FAD9F8000012
:103FA00010B10368DB689847D9F8000010B10368C6
:103FB0001B689847DFF8C080D8F8000010B103688C
:103FC0005B699847D7F83C0110B103685B68984774
:103FD000D8F8000010B103681B689847D7F83C0177
:103FE00010B103689B6898470021F068FFF76EFFE7
:103FF00014210446FFF76EFFB068002103685B6A76
:104000009847054604F0C6FE7068002103685B6AA5
:1040100098470646294604F05FFE331DC7F83C6109
:104020002846CAF804302B68C6F808A0DB68C9F82F
:104030000040C8F80050EE639847336830461B686C
:1040400098472146284623F035FB236820461B6904
:104050009847236820465B69BDE8F047184700BFD2
:1040600000B00308E3B3030868B10308AFB1030865
:1040700052B20308D0860120CC8601202DE9F047FA
:10408000D0E9556A0746B06803681B6A984742F250
:104090005B63984205D8414BA321414A414833F024
:1040A000CDFF706803681B6A98470F2803D83E4B02
:1040B000A4213B4AF2E7F06803681B6A98473F284F
:1040C00003D83A4BA521364AE8E7DFF8E49021F01F
:1040D00011FA043021F033FAD9F8000010B1036866
:1040E000DB689847D9F8000010B103681B6898474F
:1040F000DFF8C080D8F8000010B103685B6998470A
:10410000D7F83C0110B103685B689847D8F8000005
:1041100010B103681B689847D7F83C0110B10368D9
:104120009B6898470021F068FFF7D0FE14210446F1
:10413000FFF7D0FEB068002103685B6A9847054628
:1041400004F074FD7068002103685B6A98470646B6
:10415000294604F049FD331DC7F83C612846CAF8DA
:1041600004302B68C6F808A0DB68C9F80040C8F81E
:104170000050EE639847336830461B6898472146E5
:10418000284623F097FA236820461B69984723683E
:1041900020465B69BDE8F047184700BF00B0030840
:1041A000D5B4030868B10308AFB1030852B20308DD
:1041B000D0860120CC8601202DE9F047D0E9556A50
:1041C0000746B06803681B6A984742F20B5398424F
:1041D00005D8414BA321414A414833F02FFF706875
:1041E00003681B6A98470F2803D83E4BA4213B4A1B
:1041F000F2E7F06803681B6A98473F2803D83A4BF8
:10420000A521364AE8E7DFF8E49021F073F904309D
:1042100021F095F9D9F8000010B10368DB689847E0
:10422000D9F8000010B103681B689847DFF8C08018
:10423000D8F8000010B103685B699847D7F83C01D3
:1042400010B103685B689847D8F8000010B10368A4
:104250001B689847D7F83C0110B103689B689847E2
:104260000021F068FFF732FE14210446FFF732FE0A
:10427000B068002103685B6A9847054605F094F82A
:104280007068002103685B6A98470646294605F076
:104290000FF8331DC7F83C612846CAF804302B6874
:1042A000C6F808A0DB68C9F80040C8F80050EE6303
:1042B0009847336830461B6898472146284623F0C4
:1042C000F9F9236820461B699847236820465B69F3
:1042D000BDE8F047184700BF00B00308C7B50308A2
:1042E00068B10308AFB1030852B20308D0860120B9
:1042F000CC860120406A7047806A70477047012071
:10430000704790ED050A7047406A7047806A7047B1
:104310008B88C069DB0A0A6850F823001044704794
:1043200010B50446BAB1107B68B1537BD27A1B0238
:1043300003F4E0631A43236A03EB82031A888A4278
:1043400002D193F9020010BD05D80138043380B2C0
:104350000028F3D1F7E70020F5E713B504468AB348
:10436000107B30B3537BD27A1B0203F4E0631A4311
:10437000236A03EB82031A888A421CD1B3F9023004
:1043800094ED057A07EE903AF8EEE77A67EE877AD1
:10439000B6EE007AF5EEC07AF1EE10FAACBF77EE29
:1043A000877A77EEC77AFDEEE77ACDED017A9DF94F
:1043B000040002B010BD05D80138043380B20028D3
:1043C000D9D1F6E70020F4E7704710B50446302154
:1043D00032F0EEFE204610BD10B504462C2132F01E
:1043E000E7FE204610BD000030B58BB00446BDF896
:1043F00060500895BDF85C5007959DF850500695A3
:104400009DF84C5005959DF8485004959DF84450F2
:1044100003959DF8405002959DF83C500195BDF8DC
:104420003850009522F0B0FC064B20462360159BC7
:10443000E361169B2362199B63621A9BA3620BB014
:1044400030BD00BFA0B70308F0B55E895D8807EEF8
:10445000106A079F35449E89B8EEC77A826107EEDD
:10446000905A1D89059AF8EEE77A05EE905A9D88D4
:1044700027EE007AF8EEE55AC26167EE807A06EE22
:10448000105ADD88BAFE477A65EE805A069AFAFE1F
:10449000677AFDEEE77AB8EEC66A06EE905AFAFE43
:1044A000655ADD8917EE90CAFCEEE57AC18026EEEA
:1044B000006AF8EEE66AA0F804C017EE901AFCEE67
:1044C000C77ABAFE466AC681017266EE806A17EE46
:1044D000901AFCEEC67A058241720021FAFE666AE5
:1044E0000262817217EE901AFCEEE67A089AC172A7
:1044F00080ED050A17EE901A826201731B88044949
:1045000083853B880160002B08BF00274762F0BD10
:1045100008B8030810B50023384CCA88238063808C
:104520008B8890ED057AA380002A65D007EE902A4B
:10453000F8EEE77A67EE877AFAFE677AFDEEE77AB9
:1045400017EE903A0133FF2BDAB2D4BF00230123D8
:10455000DB00A2710A89294807EE902AF8EEE77A73
:1045600067EE877AFAFE677AFDEEE77A17EE902A11
:10457000FF2AE271B1F90A20C8BF43F0100307EE29
:10458000902AF8EEE77A67EE877AFAFE677AFDEE10
:10459000E77A17EE902AFF2A2272C2BFD21002F0E9
:1045A00060021343B1F90C2007EE902AF8EEE77A87
:1045B00067EE877AFDEEE77A17EE902AF6EE007A3C
:1045C0006272CA8906EE902AF8EEE66AE6EE877A0B
:1045D000FDEEE77A17EE902AFF2AA2720A8AC8BF78
:1045E00043F08003FF2AE27284BFC2F30222134326
:1045F0008A7C6373227310BD1346AAE7B44F002070
:1046000003468069F0B5002839D09A8D8388013A35
:10461000CB1A12D493420CDD142303FB02039B88B4
:104620005B1AD31A9A4208DB002BBCBF02EBD27391
:104630005B1000241426944201DD00201FE006FBDD
:104640000305AF88B94219D00DD25A1E9442F4DC4A
:1046500035F8103C5B1AD31A9A42EEDB9C42EADD35
:1046600013195B10E7E75C1CA242E6DB2B8BCB1A2D
:1046700023449C42E1DC9A42DDDAF1E72846F0BDB2
:1046800010B50446FFF7BCFF014620B12046BDE847
:104690001040FFF73FBF10BDF8B505460C46174662
:1046A0001E46FFF7ADFF014670B1EB69E40A0268F0
:1046B000284653F8243003EB42033B60FF2333705A
:1046C000BDE8F840FFF726BFF8BD704730B5174D7D
:1046D0008FB02C68BFF35B8F14F0010422D1284601
:1046E00032F068FDF0B13F23282211490993114BA4
:1046F00011480893114B0A940793012301940493E2
:10470000CDE905430423CDE902431423CDE90B444D
:1047100000931823FFF768FE094833F0ADFC2846E4
:1047200032F054FD04480FB030BD00BFC44F00202C
:10473000202406900C030408C84F002054030408EA
:10474000CB4600087047000030B5174D8FB02C687D
:10475000BFF35B8F14F0010422D1284632F02AFD0A
:10476000F0B13F23012211490993114B11480893DD
:10477000114B0A940594CDE906430423CDE9033295
:1047800028230E2200932923CDE90B44CDE90144CF
:10479000FFF72AFE094833F06FFC284632F016FD79
:1047A00004480FB030BD00BFF44F002050260690E3
:1047B0004C030408F84F002058030408454700083C
:1047C0007047000030B5174D8FB02C68BFF35B8F7A
:1047D00014F0010422D1284632F0ECFCF0B13F2362
:1047E000012211490993114B11480893114B0A9466
:1047F0000594CDE906430423CDE903324623102274
:1048000000934723CDE90B44CDE90144FFF7ECFDCC
:10481000094833F031FC284632F0D8FC04480FB088
:1048200030BD00BF24500020142706905003040818
:10483000285000205C030408C1470008002070478E
:10484000002070470EB403B503AB002153F8042BCE
:10485000019321F09DFD02B05DF804EB03B07047B9
:104860000CB407B504AB53F8042B019321F090FD71
:1048700003B05DF804EB02B070470000436C10B564
:10488000044673B3038F2BB9184BC521184A194836
:1048900033F0D4FBC38E00EB43035B8C0BB323F0EC
:1048A0006DFC238F012B03D8134BCB21134AEEE76A
:1048B000E28E40F63F10531C9BB2092B194688BF6D
:1048C000A3F10A0104EB4101498C814209D10A2B71
:1048D00004EB420228BF0023508C04EB43035884AE
:1048E00051842046BDE8104023F04ABB64B8030859
:1048F0006DB8030818B9030862B9030870B9030852
:1049000023F007BB10B586B002AC84E806001A4657
:104910000AAB214605930193099B0093089B20F065
:10492000B1F906B010BD000038B518BB124B1348E2
:104930001C681349B4B122682244026062682244B0
:104940000A60A26814440F4B00221A8000F038F865
:10495000054600F033F80C4B1C600C4B1D600C4BF3
:10496000188007E00B4B03600B4B0B600B4B1C6874
:10497000002CE8D138BD00BF605000205850002006
:10498000545000205C500020E0860120E886012081
:10499000E4860120784C0690C84B0690E84E0690BD
:1049A000044B1B6853F82100034B1B6803EB4000CA
:1049B000704700BF54500020585000202C207047F2
:1049C000004870476450002010B5074CFFF77EFE8A
:1049D0002060FFF7B9FE606000F018F8A060FFF7F4
:1049E000F1FEE06010BD00BF6450002010B5044C23
:1049F0000460AA200860034911602F221A6010BDCC
:104A0000A4500020745000207047000030B5124DB3
:104A100085B02C68BFF35B8F14F0010418D12846D1
:104A200032F0C8FBA0B10D4B0A210D4A02930D4B89
:104A30009FED0D0A01930D4B0D48009303940D4B10
:104A4000FFF702FD0C4833F017FB284632F0BEFB9F
:104A5000074805B030BD00BF4C5300207007040864
:104A60003C46069060030408FBFF9F3B6C0704086C
:104A70005053002042BA0308094A0008806A704770
:104A80007047704770477047704730B585B003680E
:104A9000044601816D460146D3F884303C342846F3
:104AA000984795E8070084E8070005B030BD30B5A9
:104AB00085B00368044641816D460146D3F88430D1
:104AC0003C342846984795E8070084E8070005B07D
:104AD00030BD0022028042808280C280704780F810
:104AE00036107047036870B504461B6B154698472F
:104AF0002368204629465B6EBDE8704018470020B9
:104B00007047806C70477047704790F82C304BB1FD
:104B100000F16C021268C2653BB100F174031B68BE
:104B20000366704700F16802F4E700F17003F6E7EE
:104B3000704770477047704730B444680346C26896
:104B40009B68551004EB6200D20748BF625930BC25
:104B500048BFD35818470346406830B19A681AB91D
:104B6000D86800F0010070470120704790F82D30A0
:104B700080F85A30704710B504464C2132F018FBCB
:104B8000204610BD10B50446302132F011FB2046FE
:104B900010BD10B50446782132F00AFB204610BD46
:104BA00010B504467C2132F003FB204610BD10B541
:104BB0000446102132F0FCFA204610BD034B10B51C
:104BC000044603601EF0C8FF204610BDFCBD03086C
:104BD000064B10B5044603601EF0BEFF42F25C6156
:104BE000204632F0E5FA204610BD00BFFCBD0308A8
:104BF00008B590F828300BB1FEF78CFA08BD08B55F
:104C0000FEF788FA08BD10B50446006B50B1036882
:104C1000DB68984730B1206B21460368BDE810403F
:104C20009B68184710BD70B50446C06A0D4658B160
:104C30000368DB68984738B1E06A2A462146036872
:104C4000BDE870409B68184770BD0B7970B504468D
:104C50000D4690F82C600BB916B170BD002EFCD03B
:104C6000B3FA83F320465B0984F82C302368D3F829
:104C70008C309847236820465B699847002EECD01B
:104C80002B79012BE9D123682046D3F88830BDE881
:104C90007040184770B504460D46FFF7D6FFA06F69
:104CA00058B10368DB68984738B1A06F2A4621469F
:104CB0000368BDE870409B68184770BD036870B515
:104CC0005E6B0446114B8DB21B682BB9104B6C21E7
:104CD000104A114833F0B2F91049828D0988914287
:104CE00003D80F4B6D210B4AF3E713F812200D4B3D
:104CF0001B6853F8220003681B6B9847291A334638
:104D0000204609B2BDE87040184700BFE086012088
:104D100052BA030894BA0308CFBA0308E486012004
:104D200016BB0308E8860120C830884208B505D1C3
:104D300020F0E0FBBDE80840FFF788B808BD00227E
:104D40004FF0FF318260C0E900217047074A0260DE
:104D50000022C0E90122C0E90322C0E90522C0E91E
:104D600007224FF480728284704700BF54FA030810
:104D7000036870B504461B6B1546984723682046A8
:104D800029465B6BBDE870401847000010B504462B
:104D90002622002133F028FC2046FFF7D7FF044BE2
:104DA00020462360FF2384F826300023A36210BD31
:104DB000B4F8030810B504462622002133F014FC91
:104DC0002046FFF7C3FF0A4B4FF47F0220462360C3
:104DD000084BA3624FF6FF73A3850023C4E90C328E
:104DE0004FF0FF322387E363C4E9102310BD00BFF7
:104DF00024F80308F8AF03082DE9F04F04468DB0FE
:104E0000002522F0ABFAA146DA4BE56304F19808DD
:104E100049F8403B4846FFF7B9FF04F16C0301260F
:104E200004F5A27A18460493FFF7B0FF4FF6FF731C
:104E30000AA94046ADF828301DF048F8CE4B04F5DD
:104E4000E47B84F8BC6004F50477C4F8983004F17E
:104E5000C803C4F8C45018460293FFF777FF4FF415
:104E60007F4384F8EC60A4F8F430C44BC4F8F050ED
:104E7000C4F8C83004F1FC03C4F8F8501846039392
:104E8000FFF784FFBE4B2A462946C4F8FC3003983E
:104E9000C4F82851A4F82C51C4E94C55C4E94E5526
:104EA000FFF766FFDDE9020116F0F2FEB54B84F86C
:104EB000EC605046C4F8C830261DC4F840511AF0C2
:104EC000B1FD04F5DA7318460593FEF7A9FAAE4B67
:104ED0005846C4F8C051C4F8B4312433C4F8BC31C6
:104EE000FFF768FF3846FFF765FFA84BA84A4FF465
:104EF000E151C4F8103204F50053C4F8585204F6D6
:104F00002C20C3F84C26A34AC3F85046C3F85426B5
:104F1000C3F858561EF016FE4FF488732A464846CA
:104F2000294600934FF4F073FEF75CFE4FF07F4389
:104F300049463046A3664FF0500916F0A9FE4FF4DB
:104F400088732A462946049800934FF4F073FEF7BD
:104F500049FE4FF0FF3304993046C4F8943016F000
:104F600097FE082340460AA9ADF828301DF0F8FE48
:104F70004B460522404640F28B11CDF80090FEF7DB
:104F800031FE404629461CF05BFF41464FF0510878
:104F9000304616F07DFE2A4629464B460398CDF84A
:104FA0000080FEF71FFE05230298A4F82C317A4BEF
:104FB000C4F8303103F54C533333C4F83431A3F51E
:104FC000CC43663BC4F8383103F1331303F54C533B
:104FD000C4F83C31D4F8C8300393FFF796FD039B27
:104FE000029884F8F550D3F89030984704F5195397
:104FF000042240F28B110C330298C4F8F8304B466F
:10500000CDF80080FEF7EEFD0299304616F040FE26
:105010003A232A4629465046009340F28B13FEF766
:10502000E1FD4FF07F434FF4A0624FF4A071C4F84C
:10503000C0315046059BA4F8C451C4F86C311AF035
:1050400007FE4FF4A06243F2200150461AF00BFE17
:10505000D4F88031202B05D020235046C4F880316D
:105060001AF000FD5046012106AD1AF007FE4FF080
:105070007F48514630464FF0000916F009FE0F22D6
:1050800010215846FFF774FE28465946C4F8F881A7
:10509000A4F8FC911DF0C4F90BF13C03DFF81CA14E
:1050A00095E8070083E8070020230AA95846CDF8B1
:1050B00028A0ADF82C301DF04DFC5946304616F0B6
:1050C000E7FDDD232E2206213846009340F27F13B0
:1050D000FEF788FDD4F8103228463946D3F88430DC
:1050E000C4F8408207F13C08A4F844929847012391
:1050F00095E8070088E8070084F849322846D4F884
:1051000010323946D3F884309847244B95E807008D
:105110001B6804F5177588E807002BB9204B602140
:10512000204A214832F08AFF204B1B881BB9204BB4
:1051300061211C4AF5E71F4B49461868FFF730FC10
:105140001D4A03464FF47A71284623F0BFFD192308
:105150000AA93846C4F85852ADF82C30CDF828A02A
:105160001DF0F8FB3046394616F092FD20460DB092
:10517000BDE8F08FFCBD030838BC0308ACBC0308D5
:105180001CF9030848BD030864ED0308A8BB030825
:10519000E4BD0308294D0008996600FFE086012060
:1051A00052BA030854BB0308CFBA0308E4860120AF
:1051B00016BB0308EC86012068E00308F8AF03087B
:1051C000006B7047406B704780F82C10704710B42C
:1051D0000368046BD3F8A430624361435DF8044B69
:1051E0001847D0ED0C7A0368F8EEE77A10B420EE99
:1051F000270AD3F8A440B5EEC00AF1EE10FA1ADB84
:10520000B6EE007A30EE070ABDEEC07A17EE101A3D
:1052100060EEA70AF5EEC00AF1EE10FA1EDBF6EE1C
:10522000007A70EEA70AFDEEE07A17EE902A234688
:105230005DF8044B1847BDEEC07AF8EEC76A17EE6A
:10524000103A013B30EE660AF7EE086A30EE260AA5
:10525000BDEEC00A10EE101A1944D9E7FDEEE07A4F
:10526000B8EEE77A17EE903A013B70EEC70AB7EE58
:10527000087A70EE870AFDEEE00A10EE902A1A44D2
:10528000D5E710B40368046BD3F8B03062435DF81F
:10529000044B1847D0ED0C7A0368F8EEE77A10B4A7
:1052A00027EE800AD3F8B040B5EEC00AF1EE10FA4E
:1052B0000BDBF6EE007A30EE270AFDEEC07A17EE31
:1052C000902A23465DF8044B1847FDEEC07AB8EEED
:1052D000E77A17EE903A013B30EE470AB7EE087ACC
:1052E00030EE070ABDEEC00A10EE102A1A44E8E7B5
:1052F00010B40368446BD3F8BC30624361435DF87B
:10530000044B1847D0ED0D7A0368F8EEE77A10B435
:1053100020EE270AD3F8BC40B5EEC00AF1EE10FA31
:105320001ADBB6EE007A30EE070ABDEEC07A17EE51
:10533000101A60EEA70AF5EEC00AF1EE10FA1EDBB5
:10534000F6EE007A70EEA70AFDEEE07A17EE902AEC
:1053500023465DF8044B1847BDEEC07AF8EEC76AE5
:1053600017EE103A013B30EE660AF7EE086A30EEAF
:10537000260ABDEEC00A10EE101A1944D9E7FDEE58
:10538000E07AB8EEE77A17EE903A013B70EEC70A82
:10539000B7EE087A70EE870AFDEEE00A10EE902A6A
:1053A0001A44D5E710B40368446BD3F8C0306243A5
:1053B0005DF8044B1847D0ED0D7A0368F8EEE77AF4
:1053C00010B427EE800AD3F8C040B5EEC00AF1EE63
:1053D00010FA0BDBF6EE007A30EE270AFDEEC07A0B
:1053E00017EE902A23465DF8044B1847FDEEC07A6D
:1053F000B8EEE77A17EE903A013B30EE470AB7EE87
:10540000087A30EE070ABDEEC00A10EE102A1A44E0
:10541000E8E7D0F82C31026B002B07DB02EB4300EE
:1054200090FBF2F000EBD070401070476FF001017C
:1054300001FB0320013890FBF2F000EBD07040102C
:1054400040427047D0ED4B7A90ED0C0AF8EEE77AC7
:10545000B8EEC00A87EE800A7047D0F82C0170477A
:10546000D0F83031026B002B07DB02EB430090FBDE
:10547000F2F000EBD070401070476FF0010101FBBB
:105480000320013890FBF2F000EBD0704010404256
:105490007047D0ED4C7A90ED0C0AF8EEE77AB8EE52
:1054A000C00A87EE800A7047D0F830017047D0F804
:1054B0003431426B002B07DB02EB430090FBF2F030
:1054C00000EBD070401070476FF0010101FB03202A
:1054D000013890FBF2F000EBD07040104042704772
:1054E000D0ED4D7A90ED0D0AF8EEE77AB8EEC00AED
:1054F00087EE800A7047D0F834017047D0F8383111
:10550000426B002B07DB02EB430090FBF2F000EB59
:10551000D070401070476FF0010101FB032001388B
:1055200090FBF2F000EBD070401040427047D0ED9D
:105530004E7A90ED0D0AF8EEE77AB8EEC00A87EEE3
:10554000800A7047D0F838017047036870B5044688
:10555000D3F888300D4616469847236832462946C8
:105560002046D3F89030BDE8704018470368D3F860
:10557000943018470368D3F8D43018470368D3F839
:10558000E03018470368002A10B4D3F8A430046B45
:105590000EDB04EB420292FBF4F101EBD1714910F6
:1055A000B0F91E215DF8044B013A0A4449421847FC
:1055B0006FF0010101FB0241013991FBF4F101EBB4
:1055C000D17149104942EBE70368D3F83C311847E1
:1055D000026B03685143D3F8483118470368D3F886
:1055E00044311847D0ED0C7A0368F8EEE77AD3F827
:1055F000482127EE800AB5EEC00AF1EE10FA08DB6A
:10560000F6EE007A30EE270AFDEEC07A17EE901A19
:105610001047FDEEC07AB8EEE77A17EE903A013BFC
:1056200030EE470AB7EE087A30EE070ABDEEC00A40
:1056300010EE101A1944EBE7C0F83C1170470368EC
:10564000D3F850311847036810B5D3F85C310446DD
:1056500098470028236B07DB03EB400090FBF3F037
:1056600000EBD070401010BD6FF0010202FB003063
:10567000013890FBF3F000EBD07040104042F2E7AD
:105680000368D3F858311847036810B50446D3F8B7
:105690005C31984707EE900A94ED0C0AF8EEE77A31
:1056A000B8EEC00A87EE800A10BDD0F83C01704702
:1056B000026B03685143D3F868311847D0ED0C7A78
:1056C0000368F8EEE77AD3F8682127EE800AB5EE92
:1056D000C00AF1EE10FA08DBF6EE007A30EE270A87
:1056E000FDEEC07A17EE901A1047FDEEC07AB8EEC4
:1056F000E77A17EE903A013B30EE470AB7EE087AA8
:1057000030EE070ABDEEC00A10EE101A1944EBE79E
:10571000C0F840117047036810B5D3F874310446DF
:1057200098470028236B07DB03EB400090FBF3F066
:1057300000EBD070401010BD6FF0010202FB003092
:10574000013890FBF3F000EBD07040104042F2E7DC
:10575000036810B50446D3F87431984707EE900AF1
:1057600094ED0C0AF8EEE77AB8EEC00A87EE800AEC
:1057700010BDD0F84001704703680029026BD3F8D0
:10578000843110B504460EDB02EB410191FBF2F1CE
:1057900001EBD171491009B220469847D4E94F2353
:1057A00002FB003010BD6FF0010000FB0121013948
:1057B00091FBF2F101EBD17149104942EBE7006B2B
:1057C0007047406B70470368D3F848311847036847
:1057D000D3F85C311847026B03685143D3F8143196
:1057E0001847036870B5D3F818510446D0F84461DF
:1057F000D3F8803198472B4656F820102046BDE854
:105800007040184710467047D0F83C21036852F8A2
:105810002110D3F814311847D0F84021036852F80A
:105820002110D3F81831184703460846B3F91C2154
:10583000B3F91E11914207DBB3F94C31191891FBF2
:10584000F2F302FB131108B2704748017047C162BE
:105850007047C06A70470120704770477047C06B3F
:1058600018B10368D3F8803018477047B2F81A119E
:1058700030B5B2F91441B2F940502144B2F8422097
:105880004480521A002185800180C28030BD10B54D
:105890004280BDF90840BDF90C2004808280C3809D
:1058A00010BD0B680846D3F8D43018470B6808467B
:1058B000D3F8E0301847B1F914017047B1F814314A
:1058C000B1F81A21B1F842001344C01A00B270476F
:1058D000B1F916017047B1F81631B1F81821B1F8D5
:1058E00040001344C01A00B270470B6808461146C6
:1058F000D3F81431184730B5B2F91651B2F818413F
:10590000B2F840102C44B2F942200580091B002453
:10591000C2804480818030BD02808380BDF9002038
:10592000BDF904304280C38070470B680846D3F845
:10593000EC3018470B680846D3F8F8301847B1F92F
:1059400016017047B1F81631B1F81821B1F84000CE
:105950001344C01A00B27047B1F914017047B1F88E
:105960001431B1F81A21B1F842001344C01A00B240
:1059700070470B6808461146D3F81831184770472E
:10598000704770477047704770477047704770475F
:1059900030B444680346C2689B68551004EB62004B
:1059A000D20748BF625930BC48BFD3581847034696
:1059B000406830B19A681AB9D86800F001007047A1
:1059C0000120704710B50446402131F0F1FB20461C
:1059D00010BD10B50446402131F0EAFB204610BD51
:1059E00010B504464FF4107131F0E2FB204610BDB3
:1059F00010B504464FF4497131F0DAFB204610BD72
:105A000010B50446102131F0D3FB204610BD38B547
:105A100003460846D3E90C540B68D3F88C309847FA
:105A2000294602462046BDE838401AF023BF38B563
:105A300003460846D3E90C540B68D3F894309847D2
:105A4000294602462046BDE838401AF013BF000040
:105A5000034B10B5044603601EF07EF8204610BDCF
:105A60004CC40308064B10B5044603601EF074F8DE
:105A700042F69C21204631F09BFB204610BD00BF22
:105A80004CC4030800F68C03994270B504460D46D9
:105A900003D11FF02FFDFEF7D9F904F6FC139D4248
:105AA00003D123682046DB6A984704F52F639D42A3
:105AB00003D1236820461B6B984704F608139D42C8
:105AC00005D1236820465B6BBDE87040184770BD68
:105AD00008B590F82C300BB1FDF71CFB08BD000099
