:020000040800F2
:1000000000000520611B00087D1A00087F1A000807
:10001000811A0008831A0008851A000800000000F1
:1000200000000000000000000000000081D800086F
:10003000871A00080000000021D9000885D90008AF
:10004000B11B0008B11B0008B11B0008B11B000860
:10005000B11B0008B11B0008B11B0008B11B000850
:10006000B11B0008B11B0008B11B0008B11B000840
:10007000B11B0008B11B0008B11B0008B11B000830
:10008000B11B0008B11B0008B11B0008B11B000820
:10009000B11B0008B11B0008B11B0008B11B000810
:1000A000B11B0008B11B0008B11B0008B11B000800
:1000B000B11B0008B11B0008B11B0008B11B0008F0
:1000C000B11B0008B11B0008B11B0008B11B0008E0
:1000D000B11B0008B11B0008B11B0008B11B0008D0
:1000E000B11B0008B11B0008B11B0008B11B0008C0
:1000F000B11B0008B11B0008B11B0008B11B0008B0
:10010000B11B0008B11B0008B11B0008B11B00089F
:10011000B11B0008B11B0008891A0008B11B0008B8
:10012000B11B0008B11B0008B11B0008B11B00087F
:10013000B11B0008B11B0008B11B0008B11B00086F
:10014000B11B0008B11B0008B11B0008B11B00085F
:10015000B11B0008B11B0008B11B0008B11B00084F
:10016000B11B0008B11B0008B11B0008B11B00083F
:10017000B11B0008B11B0008B11B00080000000003
:10018000B11B0008B11B0008B11B0008B11B00081F
:10019000B11B0008B11B0008B11B0008B11B00080F
:1001A000951A0008B11B0008A11A0008B11B00082D
:1001B000B11B0008B11B0008B11B0008B11B0008EF
:0801C000B11B0008B11B00088F
:1001D00010B5054C237833B9044B13B10448AFF381
:1001E00000800123237010BD2401002000000000C6
:1001F000C8A1030808B5034B1BB103490348AFF37B
:10020000008008BD0000000028010020C8A10308EC
:1002100001F0FF01102A2BDB10F0070F08D010F8B7
:10022000013B013A8B422DD010F0070F42B3F6D1BB
:10023000F0B441EA012141EA014122F007047FF0D4
:1002400000070023F0E80256083C85EA010586EA2B
:10025000010685FA47F5A3FA87F586FA47F6A5FA67
:1002600087F68EB9EED1F0BC01F0FF0102F0070273
:1002700032B110F8013B013A83EA010313B1F8D11E
:100280000020704701387047002D06BF35460338FF
:10029000073815F0010F07D1013015F4807F02BF38
:1002A000013015F4C03F0130F0BC0138704700BF89
:1002B00081F0004102E000BF83F0004330B54FEA17
:1002C00041044FEA430594EA050F08BF90EA020F84
:1002D0001FBF54EA000C55EA020C7FEA645C7FEA17
:1002E000655C00F0E2804FEA5454D4EB5555B8BF3A
:1002F0006D420CDD2C4480EA020281EA030382EAAB
:10030000000083EA010180EA020281EA0303362D3C
:1003100088BF30BD11F0004F4FEA01314FF4801C0F
:100320004CEA113102D0404261EB410113F0004F21
:100330004FEA03334CEA133302D0524263EB4303D8
:1003400094EA050F00F0A780A4F10104D5F1200E76
:100350000DDB02FA0EFC22FA05F2801841F10001D1
:1003600003FA0EF2801843FA05F359410EE0A5F1A5
:1003700020050EF1200E012A03FA0EFC28BF4CF0D6
:10038000020C43FA05F3C01851EBE37101F000458C
:1003900007D54FF0000EDCF1000C7EEB00006EEB99
:1003A0000101B1F5801F1BD3B1F5001F0CD3490823
:1003B0005FEA30004FEA3C0C04F101044FEA44527A
:1003C00012F5800F80F09A80BCF1004F08BF5FEA01
:1003D000500C50F1000041EB045141EA050130BDE1
:1003E0005FEA4C0C404141EB0101013C28BFB1F5F3
:1003F000801FE9D291F0000F04BF01460020B1FA3E
:1004000081F308BF2033A3F10B03B3F120020CDA10
:100410000C3208DD02F1140CC2F10C0201FA0CF0EE
:1004200021FA02F10CE002F11402D8BFC2F1200C53
:1004300001FA02F120FA0CFCDCBF41EA0C01904009
:10044000E41AA2BF01EB0451294330BD6FEA040452
:100450001F3C1CDA0C340EDC04F11404C4F120023D
:1004600020FA04F001FA02F340EA030021FA04F34F
:1004700045EA030130BDC4F10C04C4F1200220FAA6
:1004800002F001FA04F340EA0300294630BD21FAE4
:1004900004F0294630BD94F0000F83F4801306BFAA
:1004A00081F480110134013D4EE77FEA645C18BF9E
:1004B0007FEA655C29D094EA050F08BF90EA020F35
:1004C00005D054EA000C04BF1946104630BD91EA2D
:1004D000030F1EBF0021002030BD5FEA545C05D130
:1004E0004000494128BF41F0004130BD14F580046F
:1004F0003CBF01F5801130BD01F0004545F0FE41E3
:1005000041F470014FF0000030BD7FEA645C1ABF17
:10051000194610467FEA655C1CBF0B46024650EA4E
:10052000013406BF52EA033591EA030F41F400217A
:1005300030BD00BF90F0000F04BF0021704730B500
:100540004FF4806404F132044FF000054FF00001D5
:1005500050E700BF90F0000F04BF0021704730B596
:100560004FF4806404F1320410F0004548BF40426B
:100570004FF000013EE700BF42004FEAE2014FEAC0
:1005800031014FEA02701FBF12F07F4393F07F4F9B
:1005900081F06051704732F07F4208BF704793F09E
:1005A0007F4F04BF41F40021704730B54FF46074B1
:1005B00001F0004521F000411CE700BF50EA0102B4
:1005C00008BF704730B54FF000050AE050EA01025D
:1005D00008BF704730B511F0004502D5404261EBCD
:1005E00041014FF4806404F132045FEA915C3FF40E
:1005F000D8AE4FF003025FEADC0C18BF03325FEAAB
:10060000DC0C18BF033202EBDC02C2F1200300FA5B
:1006100003FC20FA02F001FA03FE40EA0E0021FA80
:1006200002F11444BDE600BF70B54FF0FF0C4CF46E
:10063000E06C1CEA11541DBF1CEA135594EA0C0F20
:1006400095EA0C0F00F0DEF82C4481EA030621EA5B
:100650004C5123EA4C5350EA013518BF52EA033596
:1006600041F4801143F4801338D0A0FB02CE4FF048
:100670000005E1FB02E506F00042E0FB03E54FF078
:100680000006E1FB03569CF0000F18BF4EF0010E70
:10069000A4F1FF04B6F5007F64F5407404D25FEA6C
:1006A0004E0E6D4146EB060642EAC62141EA55511F
:1006B0004FEAC52040EA5E504FEACE2EB4F1FD0C61
:1006C00088BFBCF5E06F1ED8BEF1004F08BF5FEADF
:1006D000500E50F1000041EB045170BD06F0004691
:1006E00046EA010140EA020081EA0301B4EB5C043E
:1006F000C2BFD4EB0C0541EA045170BD41F4801136
:100700004FF0000E013C00F3AB8014F1360FDEBF5A
:10071000002001F0004170BDC4F10004203C35DA36
:100720000C341BDC04F11404C4F1200500FA05F3B9
:1007300020FA04F001FA05F240EA020001F000425A
:1007400021F0004110EBD37021FA04F642EB0601D0
:100750005EEA430E08BF20EAD37070BDC4F10C04FA
:10076000C4F1200500FA04F320FA05F001FA04F2BE
:1007700040EA020001F0004110EBD37041F10001AA
:100780005EEA430E08BF20EAD37070BDC4F12005B5
:1007900000FA05F24EEA020E20FA04F301FA05F21D
:1007A00043EA020321FA04F001F0004121FA04F2C5
:1007B00020EA020000EBD3705EEA430E08BF20EA95
:1007C000D37070BD94F0000F0FD101F000464000CF
:1007D00041EB010111F4801F08BF013CF7D041EA51
:1007E000060195F0000F18BF704703F00046520055
:1007F00043EB030313F4801F08BF013DF7D043EA26
:100800000603704794EA0C0F0CEA135518BF95EADB
:100810000C0F0CD050EA410618BF52EA4306D1D162
:1008200081EA030101F000414FF0000070BD50EA81
:10083000410606BF1046194652EA430619D094EA0B
:100840000C0F02D150EA013613D195EA0C0F05D1F5
:1008500052EA03361CBF104619460AD181EA030149
:1008600001F0004141F0FE4141F470014FF0000001
:1008700070BD41F0FE4141F4780170BD70B54FF09C
:10088000FF0C4CF4E06C1CEA11541DBF1CEA13551C
:1008900094EA0C0F95EA0C0F00F0A7F8A4EB0504FE
:1008A00081EA030E52EA03354FEA013100F08880F5
:1008B0004FEA03334FF0805545EA131343EA1263BE
:1008C0004FEA022245EA111545EA10654FEA002673
:1008D0000EF000419D4208BF964244F1FD0404F52C
:1008E000407402D25B084FEA3202B61A65EB030588
:1008F0005B084FEA32024FF480104FF4002CB6EB45
:10090000020E75EB030E22BFB61A754640EA0C00C4
:100910005B084FEA3202B6EB020E75EB030E22BF04
:10092000B61A754640EA5C005B084FEA3202B6EB45
:10093000020E75EB030E22BFB61A754640EA9C0004
:100940005B084FEA3202B6EB020E75EB030E22BFD4
:10095000B61A754640EADC0055EA060E18D04FEA92
:10096000051545EA16754FEA06164FEAC30343EA32
:1009700052734FEAC2025FEA1C1CC0D111F4801FFF
:100980000BD141EA00014FF000004FF0004CB6E7F8
:1009900011F4801F04BF01430020B4F1FD0C88BF97
:1009A000BCF5E06F3FF6AFAEB5EB030C04BFB6EBA2
:1009B000020C5FEA500C50F1000041EB045170BD95
:1009C0000EF0004E4EEA113114EB5C04C2BFD4EBC2
:1009D0000C0541EA045170BD41F480114FF0000E46
:1009E000013C90E645EA060E8DE60CEA135594EAC2
:1009F0000C0F08BF95EA0C0F3FF43BAF94EA0C0FC5
:100A00000AD150EA01347FF434AF95EA0C0F7FF439
:100A100025AF104619462CE795EA0C0F06D152EA8D
:100A200003353FF4FDAE1046194622E750EA410671
:100A300018BF52EA43067FF4C5AE50EA41047FF482
:100A40000DAF52EA43057FF4EBAE12E74FEA4102E5
:100A500012F5001215D211D56FF47873B3EB625210
:100A600012D94FEAC12343F0004343EA505311F037
:100A7000004F23FA02F018BF404270474FF00000C9
:100A8000704750EA013005D111F0004008BF6FF007
:100A9000004070474FF00000704700BF4FEA41022E
:100AA000B2F1E04324BFB3F5001CDCF1FE5C0DD9CC
:100AB00001F0004C4FEAC0024CEA5070B2F1004F16
:100AC00040EB830008BF20F00100704711F0804F19
:100AD00021D113F13872BCBF01F00040704741F4DE
:100AE00080114FEA5252C2F11802C2F1200C10FAE2
:100AF0000CF320FA02F018BF40F001004FEAC123C6
:100B00004FEAD32303FA0CFC40EA0C0023FA02F369
:100B10004FEA4303CCE77FEA625307D150EA01333F
:100B20001EBF4FF0FE4040F44000704701F000400F
:100B300040F0FE4040F40000704700BF7BB972B93E
:100B40000029BEBF00204FF0004106E008BF00288A
:100B50001CBF6FF000414FF0FF3000F0B5B9ADF1B0
:100B6000080C6DE904CE002909DB002B1ADB00F02C
:100B70004DF8DDF804E0DDE9022304B0704740429F
:100B800061EB4101002B1BDB00F040F8DDF804E0D5
:100B9000DDE9022304B0404261EB4101524263EBC4
:100BA00043037047524263EB430300F02FF8DDF834
:100BB00004E0DDE9022304B0404261EB41017047EB
:100BC000524263EB430300F021F8DDF804E0DDE975
:100BD000022304B0524263EB4303704753B94AB94E
:100BE000002908BF00281CBF4FF0FF314FF0FF3035
:100BF00000F06AB9ADF1080C6DE904CE00F006F81A
:100C0000DDF804E0DDE9022304B070472DE9F04788
:100C1000089D0C46002B4ED194468C458646B2FA70
:100C200082F262D94AB1C2F12003914020FA03F363
:100C30000CFA02FC194300FA02FE4FEA1C471FFAA5
:100C40008CF6B1FBF7F44FEA1E4307FB141143EA9D
:100C5000014304FB06F199420AD91CEB030304F19A
:100C6000FF3080F01281994240F20F81023C6344D0
:100C7000591A1FFA8EF3B1FBF7F007FB101143EA84
:100C8000014300FB06F69E420AD91CEB030300F168
:100C9000FF3180F0FC809E4240F2F98063440238CC
:100CA0009B1B40EA044000211DB1D3400022C5E94E
:100CB0000032BDE8F0878B4205D90DB1C5E90001CE
:100CC00000210846F5E7B3FA83F1002946D1A34293
:100CD00002D39042C0F0F080861A64EB0303012037
:100CE000002DE6D0C5E90063E3E7002A40F09080DC
:100CF000A1EB0C044FEA1C481FFA8CF70121B4FB4E
:100D0000F8F64FEA1E4308FB164443EA044307FB88
:100D100006F0984208D91CEB030306F1FF3402D217
:100D2000984200F2CD8026461C1A1FFA8EF3B4FBBF
:100D3000F8F008FB104443EA044300FB07F79F4226
:100D400008D91CEB030300F1FF3402D29F4200F2EA
:100D5000B0802046DB1B40EA0640A5E7C1F1200633
:100D60008B4022FA06F71F4320FA06FC04FA01F32F
:100D700043EA0C03F44000FA01F8380C4FEA134937
:100D8000B4FBF0FE1FFA87FC00FB1E4449EA044452
:100D90000EFB0CF9A14502FA01F20AD93C190EF139
:100DA000FF3A80F08480A14540F28180AEF1020ECE
:100DB0003C44A4EB09041FFA83F9B4FBF0F300FBF5
:100DC000134449EA044403FB0CFCA44507D93C192D
:100DD00003F1FF3067D2A44565D9023B3C4443EAA6
:100DE0000E40A0FB0293A4EB0C049C42CE469C4612
:100DF00051D34ED055B1B8EB0E0364EB0C0404FA9A
:100E000006F6CB401E43CC40C5E90064002150E704
:100E1000C2F1200320FA03F10CFA02FC24FA03F3D6
:100E200094400C434FEA1C4800FA02FE1FFA8CF76C
:100E3000B3FBF8F008FB1031230C43EA014300FB3D
:100E400007F1994208D91CEB030300F1FF362CD2BD
:100E500099422AD9023863445B1AA4B2B3FBF8F171
:100E600008FB113344EA034401FB07F3A34208D90A
:100E70001CEB040401F1FF3613D2A34211D902394D
:100E80006444E41A41EA004139E70446F0E60846C2
:100E900006E7C845AED2B9EB020E63EB070C01388A
:100EA000A8E73146EDE7034699E73046D4E7D64652
:100EB0007FE7634402384DE70646234608460FE7BE
:100EC000023E634430E700BF704700BF0149002085
:100ED0000DF0D4BE5D20000808B564200CF0E4F8E5
:100EE000FBE7000010B594B01022002102240AA8EC
:100EF00038F046FA1422002103A838F041FA1D4BBD
:100F0000192108A81A6C42F080521A641B6C03F075
:100F100080530193019B184B1A6842F440421A60B7
:100F200001221B6803F440430293029B4FF4803379
:100F3000CDE908234FF48003CDE90E434FF4D87375
:100F4000CDE91244CDE910130BF074F80AF010FD4E
:100F50000F2300200721CDE903344FF4A053CDE93E
:100F600005034FF4805303A807930BF04BFA14B01A
:100F700010BD00BF00380240007000402DE98048DD
:100F80009BB01022002101250DA84FF0104938F028
:100F9000F7F9002409F0DEFAC74B0DA8ADF834507C
:100FA0001094CDE90E9309F0F3FA17230DA88DF8EC
:100FB00035508DF83C308DF8425009F0E9FA0420A4
:100FC00009F0D6FABFF34F8FBFF36F8FBB4AC2F859
:100FD0005042BFF34F8FBFF36F8F536943F4003319
:100FE0005361BFF34F8FBFF36F8FC2F88440BFF3DD
:100FF0004F8FD2F8803043F6E074C3F3C900C3F3D7
:101000004E335B0103EA0406014646EA8175013965
:10101000C2F86052F9D2203B13F1200FF2D1BFF396
:101020004F8F536943F480335361BFF34F8FBFF346
:101030006F8F09F0F5F90024FFF754FF1422002107
:101040000DA838F09DF99E4B10219E481A6B012780
:101050004FF010084FF0030B42F010024FF480598C
:10106000994D4FF0040A1A631A6B984E02F0100261
:101070000292029A1A6B42F002021A631A6B02F091
:1010800002020392039A1A6B42F001021A631A6B6E
:1010900002F001020492049A1A6B42F040021A63B1
:1010A0001A6B02F040020592059A1A6B42F4007224
:1010B0001A631A6B02F400720692069A1A6B42F0D7
:1010C00008021A631A6B02F008020792079A1A6B59
:1010D00042F480621A631A6B02F480620892089AE2
:1010E0001A6B42F020021A631A6B02F02002099276
:1010F000099A1A6B42F480721A631A6B02F48072B6
:101100000A920A9A1A6B42F080021A631A6B02F072
:1011100080020B920B9A1A6B42F004021A630022AF
:101120001B6B03F004030C930C9B09F07DFD012263
:101130000821674809F078FD01224FF48051654885
:1011400009F072FD0022C021634809F06DFD002204
:101150004021624809F068FD0DA95A48CDE90D8784
:10116000CDE90F4B09F0DCFB08230DA95848CDE968
:101170000D37CDE90F4409F0D3FB0DA95548CDE952
:101180000D97CDE90F4409F0CBFBC0220DA95248C1
:10119000CDE90D27CDE90F4B09F0C2FB40220DA987
:1011A0004E48CDE90D27CDE90F4B09F0B9FB4C486E
:1011B0004C49848001600762C0E9054409F014FAD3
:1011C00049492846C5E90014C5E90244C5E90A446D
:1011D000C5E90C4409F0A5FA39462846434D09F003
:1011E00059FB40234FF4C07241493046B460F4616A
:1011F000B462C6E905324FF40062C6E908294FF02F
:1012000002090722C6E900140DA9CDF84C90C6E9E1
:1012100003A8CDE90D92CDE90FA2CDE911B90BF0EC
:1012200047FC29464FF6FF7230460194C5E9007825
:10123000C5E902740BF05CFC384609F015F9294643
:101240004FF6FF723046C5E90098C5E902740BF00D
:101250004FFC082329464FF6FF723046C5E900B817
:10126000C5E902340BF044FC4FF40C734FF6FF72E7
:10127000294601933046019BAF60EB60C5E900A8A9
:101280000BF036FC40F22B7130461A4D0BF04FFC40
:1012900043F2D2024FF020436420174E1A6009F047
:1012A000E3F8164B28462C62C5E90036C5E902472B
:1012B000C5E9044424E000BF1B00000300ED00E08A
:1012C00000380240000402402C0300205C01002092
:1012D000002802400020024000080240001802409E
:1012E0006C0300200030024000B0024040010020AA
:1012F000400100A08402002068474020005C0040BC
:10130000C5E9064409F0FEFD214628460AF04AF9DF
:10131000214628464A4D0AF06BF9342221460DEB4E
:10132000020038F02DF8474B2822352140F21520D5
:1013300040F2352C2C61AC8685F83640C5E9003486
:101340000923C5E905230B23C5E9071340F21B1345
:10135000C5E9090340F21D132846C5E90BC3C5E9D9
:1013600002440AF0F1F9FF214FF4806E4FF4F0725D
:101370004FF4887328460D941893ADF864408DF8A7
:101380006640314DCDE912140521CDE914E14FF04D
:101390004041CDE90E24CDE9161222460DA9CDE932
:1013A00010390AF09CFA2948294B0462C0E9003739
:1013B000C0E902A84FF4A0634FF01808C0E9064442
:1013C000C0E904830AF0EEFB08F0AAFE08F0F0FD85
:1013D0005C2009F0ADF800F0C1FB1E4B28462C62E2
:1013E000C5E90036C5E90247C5E90444C5E9064434
:1013F00009F088FD214628460AF0D4F821462846FF
:101400000AF0F6F800F0D6FB00F0D3FB0BF0BEFDBF
:10141000114A214611480BF0F3FD114B114A2146A8
:10142000186011480BF0ECFD104B114A2146186072
:1014300010480BF0E5FD104B18600BF0C1FDFEE706
:10144000DC01002000680140D8020020900100204B
:10145000001000A0005400408CA20308D90E000820
:101460005801002068A20308C31B00085401002093
:1014700044A2030865360008500100200268034BAF
:101480009A4201D108F0DEBF704700BF0010004053
:10149000704700000D4B82B00F216FF001001A6CF5
:1014A00042F080521A641A6C02F080520092009A44
:1014B0005A6C42F480425A6400225B6C03F480430D
:1014C0000193019B02B008F0F3BF00BF0038024057
:1014D000026882B0084B9A420BD1D3F8302803F54A
:1014E000006342F480521A631B6B03F48053019330
:1014F000019B02B0704700BF003002400E4B07B5A1
:1015000002689A4215D1A3F5F04305215A201A6BBF
:1015100042F400021A6300221B6B03F400030193E0
:10152000019B08F0C5FF5A2003B05DF804EB08F0FA
:10153000F1BF03B05DF804FB00B0024010B5AAB0E3
:1015400004461422002104A837F01AFF8422002147
:1015500009A837F015FF23682F4A93422DD14FF485
:10156000804309A809930BF019F808B1FFF790FF21
:101570002A4C4FF440704FF0000C04A9236B43F049
:1015800002032363236B03F002030093009B1223E7
:10159000CDE9040303232248CDE906C304230893BD
:1015A00009F0BEF9236C43F400132364236C03F4A5
:1015B00000130193019B2AB010BD1A4A9342FAD13D
:1015C0004FF4803309A809930AF0E8FF08B1FFF748
:1015D0005FFF124C4FF4C07201211348236B43F09C
:1015E00080032363236B03F080030293029B122387
:1015F000CDE904230323CDE90613042304A90893AA
:1016000009F08EF9236C43F400032364236C03F484
:1016100000030393039BCEE70054004000380240D0
:1016200000040240005C0040001C0240144A08B55F
:101630000368934211D102F5F2324FF480711148E0
:10164000136C23F40013136409F04EFA4FF4007185
:101650000C48BDE8084009F047BA0B4A93420DD147
:1016600002F5EE3280210948136C23F40003136461
:1016700009F03AFA4FF480710448EAE708BD00BF68
:101680000054004000040240005C0040001C024086
:1016900070B5ACB004461422002106A837F070FEE5
:1016A000842200210BA837F06BFE2268484B9A4237
:1016B00040F08C800823052001240B934FF4C07365
:1016C00010930223CDE911304FF400330BA8CDE97C
:1016D00015430AF063FF08B1FFF7DAFE3D4B002423
:1016E00002250E265A6C06A93B4842F080625A64D5
:1016F0005A6C02F080620092009A1A6B42F010025B
:101700001A631A6B02F010020192019A1A6B42F4EA
:1017100000721A631A6B02F400720292029A1A6B38
:1017200042F480621A631A6B02F480620392039A95
:101730001A6B42F040021A631A6B02F040020492E4
:10174000049A1A6B42F480721A631B6B03F4807361
:101750000593059B1023CDE90635CDE908440A968B
:1017600009F0DEF84EF6FF7306A91C480A96CDE98B
:101770000635CDE9084409F0D3F8F72306A918483F
:101780000A96CDE90635CDE9084409F0C9F84FF4C9
:10179000805306A91348CDE906350923CDE908444D
:1017A0000A9309F0BDF84FF4464306A90E480A967D
:1017B000CDE90635CDE9084409F0B2F858202246B3
:1017C000052108F075FE582008F0A4FE2CB070BD6D
:1017D000006801400038024000100240002402402E
:1017E000002802400018024000200240142200217C
:1017F0002DE9F0418AB004460DEB020037F0C0FD40
:1018000022682C4B9A4251D12B4B022503240926E6
:101810009A6B4FF0040805A9284842F002020027FD
:101820009A639A6B02F002020192019A1A6B42F0DB
:1018300010021A631A6B02F010020292029A1A6BDB
:1018400042F002021A631A6B02F002020392039A38
:101850001A6B42F008021A631B6B03F0080304932F
:10186000049BCDE90585CDE9084609F059F84023E8
:1018700005A91348CDE905350A23CDE90774099375
:1018800009F04EF805A90E480996CDE90585CDE980
:10189000077409F045F84FF4605305A90948099603
:1018A000CDE90535CDE9077409F03AF80AB0BDE88D
:1018B000F08100BF001000A000380240001002407C
:1018C00000040240000C0240026808B50B4B9A422B
:1018D00013D10B4A04210B48936B23F0020393634B
:1018E00009F002F94421084809F0FEF84FF460516C
:1018F0000648BDE8084009F0F7B808BD001000A090
:10190000003802400010024000040240000C024077
:10191000F0B5002387B00393294B1E68002E4DD1EC
:101920000122022703250C241A6001A9254B264811
:101930009A6B42F001029A639B6B03F001030093E0
:10194000009B4FF68373CDE90454CDE9013708F0CD
:10195000E7FF48F2331301A91C480594CDE901378C
:10196000CDE9036508F0DCFF4CF2037301A91848C8
:101970000594CDE90137CDE9036508F0D1FF4FF6B5
:101980003F0301A913480594CDE90137CDE903656B
:1019900008F0C6FF282301A90F480594CDE90137B7
:1019A000CDE9036508F0BCFF082301A90B480594A5
:1019B000CDE90137CDE9036508F0B2FF07B0F0BD0E
:1019C000900300200038024000100240001802403E
:1019D000000C024000140240001C024000080240BB
:1019E000214B1A6C42F0100270B51A6488B01B6C5F
:1019F000054601A903A803F010030293029B0AF015
:101A0000AFFD069B4BBB0AF09BFD184E184B336095
:101A100040F2E733F360174BB0FBF3F3013B304682
:101A2000736000233361B360B3610BF0F1F90446D6
:101A300080B930460BF094F8044658B9362008F0C7
:101A400069FD0F2D0DD822462946362008F030FDBD
:101A5000094B1D60204608B070BD0AF071FD4000C2
:101A6000D3E70124F6E700BF0038024094030020CA
:101A70000010004040420F003C0000207047FEE78D
:101A8000FEE7FEE7FEE7704701480BF0ABB800BF8A
:101A900094030020014809F0C5BE00BFDC0100200E
:101AA000014808F06CBE00BF2C03002001207047E5
:101AB00008B537F019FD162303604FF0FF3008BD5D
:101AC00008B537F011FD16230360FEE770B50D462B
:101AD00014460E46731B9C4201DC204670BDAFF3DA
:101AE000008006F8010BF5E770B50D4614460E466A
:101AF000731B9C4201DC204670BD16F8010BAFF34E
:101B00000080F5E74FF0FF3070474FF4005300209E
:101B10004B60704701207047002070470B4A034616
:101B2000116810B509B90A491160106809490A4CD1
:101B30000344091B8B4206D937F0D6FC0C23036003
:101B40004FF0FF3010BD1360FCE700BFE003002042
:101B5000D094012000000520000A0000704700001A
:101B6000DFF834D0002103E00C4B5B5843500431C4
:101B70000B480C4B42189A42F6D30B4A02E0002362
:101B800042F8043B094B9A42F9D308F061FB37F065
:101B9000B1FCFFF7F3F9704700000520CC120408F0
:101BA000000000202401002024010020D094012006
:101BB000FEE7704708B501F02FF9BDE8084001F0D5
:101BC000B1B801F02BB94068704741607047000020
:101BD0004FF0E022D2F8FC3D43F08073C2F8FC3DA8
:101BE000054B064AD3F8B01F0A43C3F8B02F1A6852
:101BF00042F001021A607047001000E055CEACC5FB
:101C0000521A02EB5302B2FBF3F07047014B5868D3
:101C1000704700BF001000E0704710B504460C216B
:101C200036F092F9204610BD036810B51B690446D2
:101C300031B19847A26863689B1A0344636010BD82
:101C40009847A060FBE70000024B7020024A136037
:101C5000DB68184710000020E4030020704710B52F
:101C60000446042136F070F9204610BD73B50E4EBF
:101C70000D461446336813B9002002B070BD1B69CD
:101C8000702098470028F7D03368702001AA0DF122
:101C900006015B699847BDF8043001202B60BDF850
:101CA00006302360E9E700BFE40300207FB501238D
:101CB0008DF817204FF47A72CDE901320DF1170239
:101CC00000920A460146054809F0B4FA10B10348EB
:101CD00009F069F907B05DF804FB00BF8402002039
:101CE0007FB500230A464FF47A718DF8173001232F
:101CF000CDE901310DF1170100910146054809F0C8
:101D000073FB10B1034809F04EF99DF8170007B0B6
:101D10005DF804FB84020020032823D8DFE800F0EC
:101D2000020B131A104B102110481A68B2FA82F2F3
:101D3000520908F079BF0C4B40215A68B2FA82F27E
:101D400052090B48F5E7084B80219A68B2FA82F2F3
:101D50005209F6E7044B40210648DA68B2FA82F2EB
:101D60005209E6E7704700BFE80300200004024084
:101D70000008024000180240032823D8DFE800F0E2
:101D8000020B131A104B102110481A68003A18BFA2
:101D9000012208F049BF0C4B40215A68003A18BF95
:101DA00001220B48F5E7084B80219A68003A18BFDA
:101DB0000122F6E7044B40210648DA68003A18BFD2
:101DC0000122E6E7704700BFE8030020000402405C
:101DD000000802400018024003280FD8DFE800F096
:101DE0000206090B1021064808F023BF40210548D0
:101DF000FAE78021FBE740210348F5E7704700BF81
:101E000000040240000802400018024008B5032800
:101E100013D8DFE800F0020A0D0F1021084808F07F
:101E2000FDFE431E5842584108BD40210548F6E7D3
:101E30008021FBE740210448F1E70020F1E700BFE3
:101E400000040240000802400018024070B5084D2E
:101E500000240126E0B2FFF7D9FF18B12B68012B4F
:101E600018BF2E6001340435052CF3D170BD00BFBE
:101E7000E8030020012380F8781080F8793070475B
:101E80000020704741640039024B18BF01211970CE
:101E9000704700BF9788012000207047836B0BB10B
:101EA0000846184770474FF6FF7070474068036850
:101EB0009B6918477047000038B5044601F0FCF8EC
:101EC000084923682046084DD3F88C3098470023F2
:101ED000284684F84A30FFF77BFE0123256184F809
:101EE000703038BD000000C0F803002001F086B853
:101EF00001F08AB870B501F009F910490023C1F862
:101F00008430BFF34F8FD1F8803043F6E074C3F3D1
:101F1000C900C3F34E335B0103EA0406024646EAF6
:101F20008275013AC1F87452F9D2203B13F1200FA7
:101F3000F2D1BFF34F8FBFF36F8F70BD00ED00E0A4
:101F400001F0E6B801F036B801F008BA01F010BAB5
:101F500001F03AB810B504461CF040F8236820465A
:101F6000D3F8AC30BDE8104018471BF094BA10B558
:101F700004467C2135F0E8FF204610BD90F834106F
:101F80000D4B10B590F878401A788C4209D03AB9C8
:101F90000A490B4A08881488108001220C801A70A4
:101FA00010BD002AFCD0064A0449148808880C8019
:101FB00010800022F3E700BF908801208E88012066
:101FC0008C88012070B50D46194635B9094B40F291
:101FD000D221094A094836F0FDFEC0E90F52003A05
:101FE000074B18BF01221A700368BDE87040D3F890
:101FF0008C301847F0A2030828A3030876A303082F
:102000009688012008B5094B1B888B4203D8084BE2
:102010001B88934205D9074B9E21074A074836F093
:10202000D9FE074B1980074B1A8008BD8C88012008
:102030008E880120BBA303081EA4030876A303080F
:102040009288012094880120034690F87A0018B104
:10205000586803681B68184770470000014608B5B8
:10206000034B186801B101211BF0D2FF012008BD0C
:1020700098880120034B00225A609A60024A1A6035
:10208000704700BFF8030020B8A203080121002216
:1020900008B508460BF0BEF80A4B186028B90A4B81
:1020A00028210A4A0A4836F095FE00220421012020
:1020B0000BF07AF9074B186018B9074B2C21034A2B
:1020C000F0E708BD080400203CA5030885A5030827
:1020D000B4A5030804040020FBA50308024B4FF03D
:1020E000FF3118680BF0EEB808040020014B1868A7
:1020F0000BF024B908040020024B002118680BF0F3
:10210000E1B800BF08040020FFF7F0BF0023034838
:1021100003491A4600680BF08DB900BF0404002083
:102120000400002013B50023074C01A91A462068BB
:102130000BF0C2F94FF0FF33002201A920680BF029
:10214000BBF902B010BD00BF0404002003685B6C43
:1021500018470120704703689B6A18470D4B82B0EF
:102160001A6B42F400021A631A6B02F40002019225
:10217000019A1A6942F400021A611A6922F40002F3
:102180001A61054B054A1A614FF08062044B9A6050
:1021900002B07047003802402C0300202D240008B4
:1021A00000E100E040F2EF3070470000054B4FF0D7
:1021B00080620360044BC3F88820BFF34F8FBFF3E6
:1021C0006F8F704794A7030800E100E010B5044644
:1021D0004FF45A61FFF7EAFF204635F0B5FE20467E
:1021E00010BD000008B50A2809D8DFE800F0061085
:1021F0000E080808081010101000022008BD054B3A
:102200008621054A054836F0E5FD0020F6E7012065
:10221000F4E700BF3DA6030858A60308A3A60308D9
:1022200038B50C46887FFFF7DDFF174BA58AE28A99
:10223000586342EA054221695A64628BD963521B92
:102240001A642568082D0ED19A611A6158620F4AE6
:10225000207F42EA0062DA61E2681A620C4A596140
:10226000D9601A6038BD0022D8611A61E1680A0A93
:102270004809C1F3C40102F4784200F4FC6002434F
:102280000A439A63034AECE700B0024009000100E8
:10229000010202000102030008B50B280BD8DFE899
:1022A00000F00612100A0A0A0A08080808080220A4
:1022B00008BD0520FCE7054B6521054A054836F0B9
:1022C00089FD0020F4E70120F2E700BF3DA60308E6
:1022D000E8A60308A3A603082DE9F04191F81D80A4
:1022E0000C464046FFF7D8FFA77F05463846FFF764
:1022F000D3FF06463846FFF775FFA18A628B434B32
:10230000521A1A649A61228B521A1A61E28A58632D
:1023100042EA014221695A646268D963DA6020683E
:10232000802828D0227F0FD8202866D0402864D06B
:1023300004281AD045EA0265344BB84545F4003507
:10234000DD6160D0324A44E0B0F5807F04D0B0F562
:10235000007FEFD12F4800E02F4840EA0262DA61A7
:10236000E2681A625E62596132E045EA026242F452
:102370000032DA61F6E7A068021DDA62227F45EAE0
:10238000026545F40035DD615E625961017841B155
:10239000012921D0214B4FF48871214A214836F080
:1023A00019FDDA69418822F47F42013922F01002D6
:1023B00042EA01220121DA61144BDA6942F020027B
:1023C000DA61DA699206FCD410229A600029B9D049
:1023D000154A1A60BDE8F081B2F1FF01DA69408860
:1023E00022F47F4218BF0121013822F0100242EA94
:1023F000002242F01002DA61DEE745EA0262034B96
:1024000042F40032B5E740F20122E2E700B00240B8
:1024100001020100090002000A00020032A70308BD
:102420004CA70308A3A6030801020200024B1B6885
:10243000586803685B6918479888012070B504469E
:102440000A4B0C30002625466022606026726672B8
:1024500045F8203B29461BF031FF04F55A63EE6036
:1024600024359D42FBD1204670BD00BF94A70308D0
:10247000034B1A68D207FCD423229A60704700BF2E
:1024800000B0024030B5104C2568ED07FCD4232580
:102490000904FF2BA56041F001014FF002056563BF
:1024A0006164E0630AD00949656241EA0363E3615C
:1024B000074B22626061E060236030BDE561039BF1
:1024C000A363044BF8E700BF00B00240090001001D
:1024D00001000200010003004069704790F84400C9
:1024E0007047036B23B9C06A003818BF01207047DA
:1024F0000120704780687047043010B50C460FC843
:1025000084E80F0010BD704708B5034A40F212215D
:10251000024B034836F05EFCDCA703086FC60308D5
:1025200037A8030810B50446482135F00DFD2046B4
:1025300010BD00002DE9F0431C46436BADF51F7D37
:1025400005460E461746002B37D0002203A8DFF8B9
:10255000A890CDE9013213F07DF84FF4F4725021C8
:10256000249024A80DF02BF83A46314624A80DF00B
:102570007FFF012124A80DF01DF9022324A88DF866
:10258000D8300DF0B8F9BDF898322B9ABDF89C629E
:102590009342A89F28BF1346419A964203EB4308F3
:1025A000A7EB430728BF1646479B9E4209D824A89D
:1025B0000DF022F924A80DF04FF80DF51F7DBDE8B0
:1025C000F083012201A924A80DF0DEF96B6B03EB67
:1025D0000800984201D83C44E6E759789A78C90047
:1025E00009EA022201F4FC610A4313F8031B42EAE0
:1025F000D10224F8022BECE700F8FFFF0A4A026040
:102600000022C0E90522C0E90722C0E90922C0E989
:102610000B22C0E90D12C0E90F2280F84420C0E966
:102620000322C0E90122704710AB030810B40C4626
:1026300011461A46036B3BB1036C806BE41A2044CD
:102640005DF8044B36F0A4BEC06AF8E7036B10B522
:1026500073B1036C826BC91A5318525C98785C781A
:102660000004DB7840EA0420104340EA036010BD18
:10267000C36A5858FBE7036B43B1036CC91A836BF9
:102680005A18585C527840EA02207047C36A585A78
:102690007047000070B50446006B0D461646D8B171
:1026A000E36B934208D209230D4A65210D4884F853
:1026B00044300D4B36F08EFB0368DB689847206B87
:1026C0003246A16B03681B69984710B90D2384F843
:1026D0004430A06B256470BDE06A0844FBE700BF8E
:1026E0009BA8030837A8030888A803082DE9F84326
:1026F000436904462BB9234BAA21234A234836F0C9
:1027000069FB08228169FFF7C5FFA16943F2300622
:1027100046F2643704312046FFF798FFA369184456
:10272000A36A00F108029A4206D3012300206361E4
:10273000236AA361BDE8F883636909300822013385
:1027400020F0010120466361A161FFF7A3FFD4F8E7
:10275000189020464946FFF78EFF09F10201804696
:102760002046FFF788FF09F1040105462046FFF7E0
:102770006DFFB045D2D1BD42D0D10028CED00120CE
:10278000D8E700BFDDA8030826A9030837A8030877
:102790002DE9F04F0446ADF51F7D8A461646816946
:1027A00008229846FFF776FFA7692046391DFFF7F4
:1027B0004DFF07F10801024605462046FFF76AFF74
:1027C000636B074633B93C4B40F2AB113B4A3C4884
:1027D00036F000FB002203A8CDE9013212F03AFFE7
:1027E0004FF4F4725021249024A80CF0E8FE2A46FD
:1027F000394624A80DF03CFE012124A80CF0DAFF94
:10280000022324A88DF8D8300DF075F8BAF90250DB
:10281000479BAB4229D3BAF900904FEA4808BAF86F
:1028200004702B9B08FB05664F44BAF80250DFF892
:1028300094B03FB29F4228BF1F46BAF8063009EB5A
:10284000490A1D44419B2DB29D4228BF1D46479B0E
:10285000AB4210D324A80CF0CFFF24A80CF0FCFE50
:1028600001200DF51F7DBDE8F08F012201A924A8EC
:102870000DF08AF8CCE7012201A924A80DF084F814
:10288000626B49465244B94202F1030201D3464405
:10289000DDE712F8020C12F8013CC0000BEA03233A
:1028A00000F4FC60034312F8030C43EAD00326F85B
:1028B00011300131E7E700BF59A90308AFA90308A8
:1028C00037A8030800F8FFFF0129036838BF01217A
:1028D000DB6A70B50D4604469847A84204D22368C7
:1028E0002046DB6A984705466B1EE66910222046A3
:1028F00006EB031606F10801FFF7CCFE06F1100106
:102900002046FFF7A3FE236A043B0344C4E90553B2
:1029100070BD0000002148222DE9F041044681618C
:1029200080F84410FFF7B6FEA6690423624A3146D8
:102930002046FFF77BFE40B10323604AF22184F872
:1029400044305F4B5F4836F045FA06F10801042336
:102950005D4A2046A161FFF769FE30B10423574A62
:10296000FA2184F84430594BECE706F10C010423BA
:10297000574A2046A161FFF759FE074638B10523A3
:102980004E4A40F2011184F84430524BDAE706F126
:1029900010012046FFF75AFE054620B94E4B40F283
:1029A0000711464ACEE706F1140804234B4A204695
:1029B0004146FFF73BFE002849D0062384F8443007
:1029C0000423474A06F118012046FFF72FFE00288E
:1029D0003FD0072384F844304544424F0C22204620
:1029E0002946FFF757FE05F1080604233A4620461C
:1029F0003146FFF71BFE94F84430002848D0002BE6
:102A000048D1A36AAB4249D805F10C0304352046EE
:102A1000A3612946FFF71AFE30442946606220462A
:102A2000FFF714FE0644042220463146FFF732FE2B
:102A300004232D4A31462046FFF7F8FD002838D1FF
:102A40000123E6616361A3692362BDE8F081012788
:102A5000B6E7002FC0D006F120012046FFF7F6FDB3
:102A60004FF47A7306F13001B0FBF3F0606020465A
:102A7000FFF7ECFD06F14001A0602046FFF7E6FD00
:102A800006F14401E0602046FFF7E0FD2061A3E786
:102A9000002BB9D00A2384F84430D6E7291D2046FC
:102AA000FFF7D4FD85190C2220462946FFF7F2FDD9
:102AB00099E70B23EFE700BF09AA030827AA030839
:102AC0000EAA030837A8030854AA030859AA030842
:102AD00071AA030876AA03088CAA030898AA030817
:102AE0009DAA0308A2AA0308A7AA0308C0E90A210D
:102AF00000220263FFF70EBF10B50023044608460C
:102B0000E3620B6821639B689847A0622046BDE89A
:102B10001040FFF7FFBEF0B4069FBDF81050BDF89F
:102B2000146032B12BB10495CDE90567F0BCFFF715
:102B300001BDF0BC704700002DE9F04F9946436994
:102B400085B004460F4690462BB9294B7721294A78
:102B5000294836F03FF908228169FFF79BFDA669F5
:102B600020463146FFF787FDB11C83462046FFF71C
:102B700082FD311D82462046FFF768FD06F10801FF
:102B8000A36A054642189A4226D243F230039B4577
:102B900017D146F264339A4513D190B10246A16130
:102BA0002046FFF777FD0E9B01462A462046CDF8CA
:102BB0000080CDE901933B46FFF7ADFF6369013328
:102BC0006361A3692B4405B908330133626A23F0BA
:102BD00001039342A36109D1012301206361236AA8
:102BE000A36180F0010005B0BDE8F08F0020F8E798
:102BF000DDA80308ACAA030837A803080120704722
:102C00004020704700EB81100830704700EB8110C6
:102C1000083070470120704742F6DC30704742F6BA
:102C2000DC3303FB01000830704742F6DC3303FB62
:102C3000010008307047012070471020704700EBFA
:102C400001100830704700EB01100830704708464B
:102C500001F0ECB8034B10B50446036019F004FD15
:102C6000204610BDB8AB030810B50446FFF7F2FFCD
:102C70004821204635F068F9204610BD034B10B5B9
:102C80000446036019F0F0FC204610BD84AB030835
:102C900010B50446FFF7F2FF42F6E431204635F066
:102CA00053F9204610BD0000034B10B504460360E5
:102CB00019F0DAFC204610BD50AB030810B50446ED
:102CC000FFF7F2FF1821204635F03EF9204610BDEF
:102CD000094B10B50446036000F530501030FFF783
:102CE000B9FF04F12C00FFF7C9FF04F11400FFF74E
:102CF000DBFF204610BD00BFECAB030808B502485F
:102D0000FFF7E6FF08BD00BFD812002010B504464B
:102D1000FFF7DEFF43F6F401204635F015F92046B3
:102D200010BD00002DE9F34100F03AFD00240546F6
:102D300000F03AFD2346014622462846009426F03C
:102D400037FF274B274A2046274D1A6001F04CFDDC
:102D5000264B274A27489A6026F092FE2B68BFF33D
:102D60005B8FDB0736D4284635F0F0F890B3224C61
:102D7000224F234B04F1140007F6883604F12C0887
:102D800023606060C4F80880E760266119F06EFC7B
:102D90001C4B4046636119F069FC1B4B3846E362EB
:102DA00019F064FC04F50053184A03F65840C3F8C0
:102DB000102C06F02BF9224607F14801304606F0A8
:102DC0000BF8304601F032F8114836F021F8284669
:102DD00035F0C8F80F4802B0BDE8F041FFF76CB815
:102DE000FC88012088040020D4120020A8040020C0
:102DF0008C04002008000020D8120020E83E0020AB
:102E0000ECAB030850AB030884AB0308B8AB030872
:102E1000FD2C00080C0400207047000001481AF047
:102E2000A4BB00BF0C04002070B5244E244B254CDD
:102E30003046254D2360FFF701FB28462BF092F921
:102E4000224824F051FB224B00224FF4807121488C
:102E50001A8683F858205A6683F870205A67DC6017
:102E6000C3E912121C49C3E91A121C4999671C498B
:102E70000B604FF4F07101801A4801804FF48871A3
:102E80001948C3E90422C3E90622C3E90822C3E9B9
:102E90000A22C3E90E22C3E91022C3E91422C3E9BE
:102EA0001722C3E901650180104883F834200180AE
:102EB0000F490A700F4A1A6070BD00BF300500202C
:102EC000E0A20308D0120020A80400208C040020F7
:102ED0000C0400208C880120010000010000010189
:102EE00098880120928801208E88012094880120F2
:102EF000908801206CA403080148FFF757B900BF70
:102F0000300500200020704781807047C1807047E5
:102F10000181704741817047704770477047704723
:102F2000704710B4C4880368121B84885B6D091B4A
:102F300012B25DF8044B09B218474FF6FF73838154
:102F40004FF0FF3303621368C361106070470020C5
:102F500070478B88838001207047704780F8261067
:102F6000704790F826007047002210B5B1F908406C
:102F7000B1F90A10028042808480C18010BD002215
:102F8000028042808280C28070470177704780ED66
:102F9000080A704780F82410704780F825107047A1
:102FA00001207047983070478C30704784307047EC
:102FB00070470000034B902283F85A2383F858236C
:102FC000704700BF00E100E0094A0A49D3680A4897
:102FD000C3F30A03013B9BB20B801169C1F30A01E1
:102FE000013901801364536B43F00103536370474D
:102FF00000680140CE4B0020CC4B0020014BD3F8A1
:10300000AC00704700680140024B0122C3F8AC10CD
:103010005A62704700680140124A5369DB0370B579
:103020001ED50023C2F88430BFF34F8FD2F8803012
:1030300043F6E074C3F3C900C3F34E335B0103EA04
:103040000406014646EA81750139C2F87452F9D284
:10305000203B13F1200FF2D1BFF34F8FBFF36F8FDF
:1030600070BD00BF00ED00E0704770477047382327
:10307000002201FB0333C25490F838300BB9036CC3
:1030800083647047704780F84C10704710B5044651
:103090002C2134F059FF204610BD10B504465821AC
:1030A00034F052FF204610BD10B50446BC2134F068
:1030B0004BFF204610BD000038B504461AF041FA17
:1030C00023685D6E23F0E2F801462046A847236896
:1030D000084A2046D3F888500023A2F57F31A8473C
:1030E000054B064A5A60064A1A649A644FF4FF2256
:1030F0005A6438BD00F807C0904C0020E84C00200E
:1031000000F40BC01AF004BA1AF00EBA1AF0C9B9DA
:103110001AF039BB90F8252012B103685B69184793
:103120007047000008B531B1044B40F29711044AD2
:10313000044835F04FFE90F8390008BDF8AB03089D
:103140000CAC030899AD030810B531B1064B40F241
:103150009111064A064835F03DFE40681146036865
:10316000BDE810401B6B1847F8AB0308DBAD030844
:1031700099AD030808B529B1034B7A21034A0448E5
:1031800035F028FE006908BDF8AB03088CAF0308D2
:1031900099AD030808B529B1054B8321054A0648B6
:1031A00035F018FE41618160C0E9063208BD00BFFC
:1031B000F8AB030844B1030899AD030810B5044601
:1031C00029B1274BA421274A274835F003FE052AB9
:1031D00034D8DFE802F003292F34393E4068036811
:1031E0001B69984750B34FF0FF31606D09F0B6FF8F
:1031F0000023012294F83E1084F83B3084F83920F3
:10320000A360636101B1226284F83E306362E36AC5
:103210002BB90123206D84F83A300AF08FF8606DE5
:10322000BDE8104009F0CABF002380F8393084F8A7
:103230003E3003E0036200238360436110BD0362FC
:10324000002383604361F2E7002380F839300123D3
:10325000EDE7003B18BF012380F83D30EEE700BFEB
:10326000F8AB030803B3030899AD030890F82520D1
:103270001AB190F8242002B11860704770B5044666
:10328000164629B1314BE721314A324835F0A2FDCB
:1032900090F8393033B1304B1B6893F86B20436999
:1032A00013444361E36A002B4DD0E169D4E9053250
:1032B0005343A2684A43934220D2236A002B42D050
:1032C0004FF0FF31606D09F049FF236A0BB1002315
:1032D000E362E36AFBB90125606D09F06FFF94F8C2
:1032E00039300BB9236A3BB1E36A2BB90123206D56
:1032F00084F83A300AF022F8284670BD94F84C0061
:103300000028DDD09B1AB3FBF1F2994298BF02F17D
:10331000FF326262D4E7002294F83C50A362304648
:10332000E262E2682261A2680132A260336333681C
:103330005B699847002DCED194F83D30002BCBD15E
:1033400084F83950C8E70125C9E700BFF8AB030886
:10335000DAB4030899AD030898880120034B4FF0B5
:1033600080629A604FF080729A60704700E100E0DE
:10337000084B4FF08062C3F88820BFF34F8FBFF334
:103380006F8F4FF08072C3F88820BFF34F8FBFF369
:103390006F8F704700E100E038B5034690F83800C1
:1033A00038BB01229860D8609A634FF480725861EC
:1033B0009A874FF4F0729861D861186258629862E7
:1033C000D8621863586383F83E00CA864FF4887247
:1033D00081F834000A8708639A6C186102F5FF24AB
:1033E000D3E9101529448C420AD9084B5821084AC0
:1033F00003E0084B40F2F511074A084835F0EAFCB3
:103400001A6302F57F329C645A6338BD38B80308EA
:1034100078B803087EB60308AEB6030899AD030872
:10342000002370B5124E05468380124B036033684B
:1034300093F858200AB1D86C00B998680368DB6A21
:1034400098473368B0FA80F4D86C640930B10368E7
:10345000DB6A9847002808BF44F001042CB9064BEA
:103460002C21064A064835F0B5FC284670BD00BF41
:103470009888012020BB03081EBA03087CBA030801
:10348000B5BA030870B5244E3568BFF35B8F15F0ED
:1034900001053FD1304634F059FD00283AD01F4C89
:1034A0001F4B04F134002561E584A562A585C4E9BC
:1034B0000035C4E9025524F076FA04F158001CF0F6
:1034C000D3FF184B2046A365174B40F8843BFFF70A
:1034D000A7FF164B1648C4F884302433C4F8905024
:1034E000C4F88C306423C4F89C50C4F8A850C4E9D4
:1034F00028350023C4F8AC30C4F8B030C4F8B43078
:10350000C4F8B8300B4BC4F8983035F081FC304625
:1035100034F028FD014870BDD04B0020D44B002072
:10352000B8FC030840BB0308B8BB03086CFC0308E5
:10353000B12F00084CFC030810B5144C236823B3CA
:10354000134B144A1B6C11888B4213D1124B1988F0
:1035500008F0F2F9226892F86A30013382F86A3092
:10356000FEF7D4FD20681AF039FD0020BDE81040B8
:10357000FEF7D2BB08F0E0F9206803681B6A9847A1
:103580000020BDE81040FEF7F7BB10BD9888012071
:1035900000680140CE4B0020CC4B00202DE9F743C2
:1035A00004464FF4707894F83A304FF0FF31002B16
:1035B00031D0606D09F0D2FD276BA36ABB4200D108
:1035C000676B266A656856B32B68314628465B6A86
:1035D00098470023236284F83B30606D09F0EEFDCC
:1035E0002B684FF4F0723946CDF8008028465E69AA
:1035F0004FF48873B0474FF0FF310646606D09F015
:10360000ADFD94F83B30E3B1002384F83B30606DAE
:1036100009F0D4FDC7E7206D09F054FEC3E7636AE3
:10362000002BDAD02B682846D3E909939847616AC2
:1036300001442846C847A368626A66621344A360CF
:10364000CBE7E7625EB12B6828469B6A9847013852
:103650000023E06084F83C6084F83A30D7E701202A
:10366000F6E70000014808B5FFF798FF904C0020EE
:103670000368042270B504465E6A00230D46B04715
:103680004FF0FF31606D09F069FD382303FB0542FF
:10369000D16A09B10021D16203FB0545012385F8F8
:1036A0003B30002385F83930606DBDE8704009F08B
:1036B00085BD38B500EB810304460D4611465868B8
:1036C0000368DB68984729462046FFF7D1FF38BDDD
:1036D00070B50D461146044600EB8502506802683D
:1036E00096681A46B04729462046FFF7C1FF70BDCD
:1036F00038B5164900251648FEF780FF154C164BC5
:1037000001202A46294623604FF48073A564A387CD
:1037100084F84C0084F83E50C4E91055C4E91455AF
:10372000C4E90155C4E90355C4E90555C4E9075581
:10373000C4E90955C4E90B55C4E90D5509F06AFD02
:103740002065284609F0C8FC606538BD304D002072
:10375000E84C0020904C002004BC0308704708B5DA
:10376000042914D8DFE801F00F03070B0F0001F064
:1037700087F8406808BD01F083F88068FAE701F037
:103780007FF8C068F6E701F07BF80068F2E70020F8
:10379000F0E710B50446042134F0D6FB204610BDF6
:1037A0000048704750BC03080E20704713B5002432
:1037B00051B1036801AA01948DF803409C680DF192
:1037C0000303A04702B010BD0846FBE7C08970475D
:1037D000008A7047C088704780887047807A00F000
:1037E0007F007047807AC009704700207047000052
:1037F0009FED010A704700BF00000000704710B540
:103800000446082134F0A0FB204610BD70477047E5
:1038100000F598730868496803C37047704770479C
:103820004160704770470000064BC0F84801C0F87F
:103830004C310023C0F8503100F5A273C0F840317C
:10384000704700BF993A0008012303727047704720
:1038500070477047704710B441680346C2689B6860
:10386000541001EB6200D20748BF0A595DF8044BBF
:1038700048BFD35818470346406830B19A681AB910
:10388000D86800F0010070470120704710B5044669
:103890000C2134F059FB204610BD10B50446102110
:1038A00034F052FB204610BD10B504464FF4AE7103
:1038B00034F04AFB204610BD10B50446402134F0D8
:1038C00043FB204610BD10B50446402134F03CFBBC
:1038D000204610BD10B522F0D9FC0368BDE81040A9
:1038E000DB6B1847054B01461B782BB1406818B1BC
:1038F00003680C315B6E1847704700BF9788012042
:10390000054B01461B782BB1406818B103680C3198
:103910005B6E1847704700BF97880120037A70B527
:103920000546BBB940680368DB69984704463CB963
:10393000686805F10C010368BDE870401B6E18470C
:10394000E18820466B8FC91A236809B25B6B9847E0
:10395000A469ECE770BD037A70B50546BBB9406851
:103960000368DB69984704463CB9686805F10C01B7
:103970000368BDE870401B6E1847E18820466B8FD6
:10398000C91A236809B25B6B9847A469ECE770BD5C
:1039900010B50446D0F8400158B10368DB68984779
:1039A00038B1D4F8400103689B6898470023C4F8F5
:1039B000403110BD70B5044690F83900013094F8DC
:1039C0003830C0B2984284F8390005D901232372F7
:1039D000002384F8393070BDB4F93A20002124F076
:1039E0003BFDC30706D500284FF6FF73C8BF012370
:1039F000184400B2638AC01AA08760680368DB6954
:103A0000984705462DB960680368BDE870405B695A
:103A10001847E9882846A38F19442B6809B25B6BC5
:103A20009847AD69EEE770B5044690F8390001306B
:103A300094F83830C0B2984284F8390005D901238F
:103A40002372002384F8393070BDB4F93A20002184
:103A500024F002FDC30706D500284FF6FF73C8BF48
:103A60000123184400B2638AC01AA0876068036803
:103A7000DB69984705462DB960680368BDE870406A
:103A80005B691847E9882846A38F19442B6809B257
:103A90005B6B9847AD69EEE72DE9F14FD0E9556AC8
:103AA0000746B06803681B6A984742F297739842CA
:103AB00005D8444BA321444A444835F08BF970683B
:103AC00003681B6A98470F2803D8414BA4213E4A3C
:103AD000F2E7F06803681B6A98470B2803D83D4B50
:103AE000A521394AE8E7DFF8F49022F0CFFB043053
:103AF00022F0F1FBD9F8000010B10368DB689847A9
:103B0000D9F8000010B103681B689847DFF8D0802F
:103B1000D8F8000010B103685B699847D7F83C01FA
:103B200010B103685B689847D8F8000010B10368CB
:103B30001B689847D7F83C0110B103689B68984709
:103B4000F06800214FF0000B03685B6A9847224B36
:103B50000446C0F804B080F808B059460360B06865
:103B600003685B6A9847054606F04EF87068594648
:103B700003685B6A98470646294605F0D5FF331D62
:103B8000C7F83C612846CAF804302B68C6F808A07C
:103B9000DB68C9F80040C8F80050EE639847336806
:103BA00030461B6898472146284624F04FFC23687E
:103BB00020461B699847236820465B6901B0BDE831
:103BC000F04F184778BD030806BE0308E0BE03089F
:103BD00027BF0308CABF03089CC50308E08801206B
:103BE000DC8801202DE9F0411D4603680446164695
:103BF0001B6BBDF9187098472368314620465B6BF4
:103C000098472368294620469B6B98472368394686
:103C10002046DB6BBDE8F041184700002DE9F74F67
:103C2000D0E9556A0746B06803681B6A984742F2B4
:103C30009773984205D8544BA321544A544835F001
:103C4000C9F8706803681B6A98470F2803D8514B5E
:103C5000A4214E4AF2E7F06803681B6A98473F28A0
:103C600003D84D4BA521494AE8E7DFF83C9122F003
:103C70000DFB043022F02FFBD9F8000010B10368CF
:103C8000DB689847D9F8000010B103681B689847B3
:103C9000DFF81881D8F8000010B103685B69984715
:103CA000D7F83C0110B103685B689847D8F800006A
:103CB00010B103681B689847D7F83C0110B103683E
:103CC0009B689847F068002103685B6A9847002268
:103CD000324B054642600446027245F80C3B2846CA
:103CE0001EF05CFF1423002223872D4BA2871B7834
:103CF000002B35D101232372B068002103685B6A71
:103D00009847054605F080FF7068002103685B6AEC
:103D100098470646294605F007FF331DC7F83C6162
:103D20002846CAF804302B68C6F808A0DB68C9F832
:103D30000040C8F80050EE639847336830461B686F
:103D400098472146284624F081FB236820461B69BA
:103D50009847236820465B6903B0BDE8F04F1847D9
:103D6000DFF84CB011462846BBF9003000930D4BEC
:103D7000B3F90030FFF736FF28461EF08BFEBBF884
:103D800000306387B8E700BF78BD03086DC0030843
:103D9000E0BE030827BF0308CABF0308E4C5030841
:103DA000978801208C880120E0880120DC88012090
:103DB0008E880120044B1B6893F858200AB1D86CF8
:103DC00000B99868704700BF98880120F8B504468C
:103DD00017460E4622F020FB104B00251C6029469A
:103DE0000F4B23600F4BC4E951350F4B1868C4E9E2
:103DF00053550368C4E94F559B68C4E95576984705
:103E0000284600F0F1FCFFF7D5FF2BF0DCFFFFF7B1
:103E1000D1FF2CF053F82046F8BD00BFEC880120FC
:103E200048C5030830C5030898880120064BC0F830
:103E30004801C0F84C310023C0F8503100F5A2739E
:103E4000C0F84031704700BF993A0008064BC0F8EF
:103E50004801C0F84C310023C0F8503100F5A2737E
:103E6000C0F84031704700BF1D3C0008064BC0F849
:103E70004801C0F84C310023C0F8503100F5A2735E
:103E8000C0F84031704700BF15430008064BC0F82A
:103E90004801C0F84C310023C0F8503100F5A2733E
:103EA000C0F84031704700BFD9410008064BC0F848
:103EB0004801C0F84C310023C0F8503100F5A2731E
:103EC000C0F84031704700BF9D400008064BC0F865
:103ED0004801C0F84C310023C0F8503100F5A273FE
:103EE000C0F84031704700BF613F000803685B6A5B
:103EF00018470000F7B5164B0026054604464660F5
:103F00000F46067245F80C3B28461EF047FE114B43
:103F100084F838701B7884F83960A68723B90123A8
:103F20002372204603B0F0BD0B4F3246314628467F
:103F3000B7F900300093094BB3F90030FFF752FE98
:103F400028461EF0A7FD3B885B426387E9E700BF78
:103F5000C0C50308978801208E8801208C88012025
:103F60002DE9F047D0E9556A0746B06803681B6A37
:103F7000984742F6DB33984205D8414BA321414A8A
:103F8000414834F027FF706803681B6A98470F2880
:103F900003D83E4BA4213B4AF2E7F06803681B6A52
:103FA00098473F2803D83A4BA521364AE8E7DFF87F
:103FB000E49022F06BF9043022F08DF9D9F800007A
:103FC00010B10368DB689847D9F8000010B10368A6
:103FD0001B689847DFF8C080D8F8000010B103686C
:103FE0005B699847D7F83C0110B103685B68984754
:103FF000D8F8000010B103681B689847D7F83C0157
:1040000010B103689B6898470021F068FFF76EFFC6
:1040100014210446FFF76EFFB068002103685B6A55
:104020009847054605F0BAFB7068002103685B6A93
:1040300098470646294605F049FB331DC7F83C6101
:104040002846CAF804302B68C6F808A0DB68C9F80F
:104050000040C8F80050EE639847336830461B684C
:1040600098472146284624F0F1F9236820461B6929
:104070009847236820465B69BDE8F047184700BFB2
:1040800078BD03085BC10308E0BE030827BF03082F
:10409000CABF0308E0880120DC8801202DE9F04731
:1040A000D0E9556A0746B06803681B6A984741F62D
:1040B0008763984205D8414BA321414A414834F0D7
:1040C00089FE706803681B6A98470F2803D83E4B27
:1040D000A4213B4AF2E7F06803681B6A98473F282F
:1040E00003D83A4BA521364AE8E7DFF8E49022F0FE
:1040F000CDF8043022F0EFF8D9F8000010B10368D1
:10410000DB689847D9F8000010B103681B6898472E
:10411000DFF8C080D8F8000010B103685B699847E9
:10412000D7F83C0110B103685B689847D8F80000E5
:1041300010B103681B689847D7F83C0110B10368B9
:104140009B6898470021F068FFF7D0FE14210446D1
:10415000FFF7D0FEB068002103685B6A9847054608
:1041600005F0DCF97068002103685B6A9847064631
:10417000294605F0B1F9331DC7F83C612846CAF855
:1041800004302B68C6F808A0DB68C9F80040C8F8FE
:104190000050EE639847336830461B6898472146C5
:1041A000284624F053F9236820461B699847236862
:1041B00020465B69BDE8F047184700BF78BD03089B
:1041C0004DC20308E0BE030827BF0308CABF0308A7
:1041D000E0880120DC8801202DE9F047D0E9556A0C
:1041E0000746B06803681B6A984742F20B5398422F
:1041F00005D8414BA321414A414834F0EBFD70689A
:1042000003681B6A98470F2803D83E4BA4213B4AFA
:10421000F2E7F06803681B6A98473F2803D83A4BD7
:10422000A521364AE8E7DFF8E49022F02FF80430C1
:1042300022F051F8D9F8000010B10368DB68984704
:10424000D9F8000010B103681B689847DFF8C080F8
:10425000D8F8000010B103685B699847D7F83C01B3
:1042600010B103685B689847D8F8000010B1036884
:104270001B689847D7F83C0110B103689B689847C2
:104280000021F068FFF732FE14210446FFF732FEEA
:10429000B068002103685B6A9847054605F08AFD0F
:1042A0007068002103685B6A98470646294605F056
:1042B0000DFD331DC7F83C612846CAF804302B6851
:1042C000C6F808A0DB68C9F80040C8F80050EE63E3
:1042D0009847336830461B6898472146284624F0A3
:1042E000B5F8236820461B699847236820465B6918
:1042F000BDE8F047184700BF78BD03083FC3030877
:10430000E0BE030827BF0308CABF0308E0880120F6
:10431000DC8801202DE9F047D0E9556A0746B068EE
:1043200003681B6A9847B0F5F76F05D2404BA3218D
:10433000404A414834F04EFD706803681B6A984754
:104340000F2803D83D4BA4213A4AF2E7F0680368EE
:104350001B6A98473F2803D8394BA521354AE8E71F
:10436000DFF8E09021F092FF043021F0B4FFD9F89B
:10437000000010B10368DB689847D9F8000010B15D
:1043800003681B689847DFF8C080D8F8000010B1B8
:1043900003685B699847D7F83C0110B103685B6814
:1043A0009847D8F8000010B103681B689847D7F801
:1043B0003C0110B103689B6898470021F068FFF743
:1043C00095FD14210446FFF795FDB06800210368B0
:1043D0005B6A9847054605F0E5F8706800210368B8
:1043E0005B6A98470646294605F0B2F8331DC7F8C0
:1043F0003C612846CAF804302B68C6F808A0DB6880
:10440000C9F80040C8F80050EE639847336830465A
:104410001B6898472146284624F018F82368204650
:104420001B699847236820465B69BDE8F047184739
:1044300078BD030835C40308E0BE030827BF03089E
:10444000CABF0308E0880120DC880120406A704769
:10445000806A704770478B88C069DB0A0A6850F829
:1044600023001044704710B50446BAB1107B68B100
:10447000537BD27A1B0203F4E0631A43236A03EBF3
:1044800082031A888A4202D193F9020010BD05D82E
:104490000138043380B20028F3D1F7E70020F5E7B4
:1044A00010B504462C2133F04FFD204610BD00000E
:1044B00030B58BB00446BDF860500895BDF85C502F
:1044C00007959DF8505006959DF84C5005959DF820
:1044D000485004959DF8445003959DF8405002952E
:1044E0009DF83C500195BDF83850009523F018FB1D
:1044F000064B20462360159BE361169B2362199BA4
:1045000063621A9BA3620BB030BD00BF08C60308EC
:104510007047000030B5174D8FB02C68BFF35B8F2C
:1045200014F0010422D1284633F010FDF0B13F23EE
:104530002C2211490993114B11480893114B0A94ED
:104540000793012301940493CDE905430423CDE9A6
:1045500002430A23CDE90B4400930C23FFF7A8FF85
:10456000094834F055FC284633F0FCFC04480FB0F1
:1045700030BD00BFB0540020241D06901412040862
:10458000B454002090120408114500087047000040
:1045900030B5174D8FB02C68BFF35B8F14F001045A
:1045A00022D1284633F0D2FCF0B13F23302211490A
:1045B0000993114B11480893114B0A940793012357
:1045C00001940493CDE905430423CDE90243142368
:1045D000CDE90B4400931823FFF76AFF094834F034
:1045E00017FC284633F0BEFC04480FB030BD00BFB6
:1045F000E05400208C1F06902C120408E454002084
:10460000941204088D4500087047000030B5164D1F
:104610008FB02C68BFF35B8F14F0010421D12846C2
:1046200033F094FCE8B13F23042210490993104B66
:1046300010480893104B0A940594CDE906430123D2
:10464000CDE903232823CDE90B4400932923CDE9A9
:104650000144FFF72DFF094834F0DAFB284633F018
:1046600081FC04480FB030BD105500202C2206906C
:1046700088120408145500209812040809460008FE
:104680007047000030B5174D8FB02C68BFF35B8FBB
:1046900014F0010422D1284633F058FCF0B13F2336
:1046A000012211490993114B11480893114B0A94A7
:1046B0000594CDE906430423CDE9033246231022B5
:1046C00000934723CDE90B44CDE90144FFF7F0FE09
:1046D000094834F09DFB284633F044FC04480FB0F1
:1046E00030BD00BF40550020642206908C120408A3
:1046F000445500209C1204088146000800207047A1
:10470000002070470EB403B503AB002153F8042B0F
:10471000019322F009FD02B05DF804EB03B070478D
:104720000CB407B504AB53F8042B019322F0FCFC46
:1047300003B05DF804EB02B070470000436C10B5A5
:10474000044673B3038F2BB9184BC521184A194877
:1047500034F040FBC38E00EB43035B8C0BB324F0BF
:10476000D9FB238F012B03D8134BCB21134AEEE740
:10477000E28E40F63F10531C9BB2092B194688BFAE
:10478000A3F10A0104EB4101498C814209D10A2BB2
:1047900004EB420228BF0023508C04EB43035884EF
:1047A00051842046BDE8104024F0B6BA68C603081C
:1047B00071C603081CC7030866C7030874C703084B
:1047C00024F073BA10B586B002AC84E806001A462D
:1047D0000AAB214605930193099B0093089B21F0A6
:1047E0001DF906B010BD000038B518BB124B1348B8
:1047F0001C681349B4B122682244026062682244F2
:104800000A60A26814440F4B00221A8000F038F8A6
:10481000054600F033F80C4B1C600C4B1D600C4B34
:10482000188007E00B4B03600B4B0B600B4B1C68B5
:10483000002CE8D138BD00BF7C5500207455002005
:104840007055002078550020F0880120F88801205C
:10485000F48801201424069044230690A026069094
:10486000044B1B6853F82100034B1B6803EB40000B
:10487000704700BF705500207455002034207047E9
:10488000004870478055002010B5074CFFF780FEA8
:104890002060FFF7BBFE6060FFF73CFEA060FFF703
:1048A000F1FEE06010BD00BF8055002010B500246F
:1048B00004600C6014601C6010BD806A7047704713
:1048C00070477047704770477047704790F82C30BA
:1048D0004BB100F16C021268C2653BB100F1740388
:1048E0001B680366704700F16802F4E700F170038B
:1048F000F6E770477047704730B444680346C268B3
:104900009B68551004EB6200D20748BF625930BC67
:1049100048BFD35818470346406830B19A681AB95F
:10492000D86800F0010070470120704790F82D30E2
:1049300080F85A30704710B50446302133F004FB3C
:10494000204610BD10B50446782133F0FDFA20460C
:1049500010BD10B504467C2133F0F6FA204610BD98
:1049600010B50446102133F0EFFA204610BD0000C8
:10497000034B10B5044603601FF0BAFF204610BD7C
:1049800014CA0308064B10B5044603601FF0B0FFBD
:1049900041F68861204633F0D7FA204610BD00BFAB
:1049A00014CA030808B590F828300BB1FEF7B2FB23
:1049B00008BD10B50446006B50B10368DB6898472A
:1049C00030B1206B21460368BDE810409B68184752
:1049D00010BD70B50446C06A0D4658B10368DB6867
:1049E000984738B1E06A2A4621460368BDE870401E
:1049F0009B68184770BD0B7970B504460D4690F85A
:104A00002C600BB916B170BD002EFCD0B3FA83F345
:104A100020465B0984F82C302368D3F88C30984703
:104A2000236820465B699847002EECD02B79012B38
:104A3000E9D123682046D3F88830BDE87040184794
:104A400070B504460D46FFF7D6FFA06F58B1036856
:104A5000DB68984738B1A06F2A4621460368BDE855
:104A600070409B68184770BDC830884208B505D1B2
:104A700021F00CFCBDE80840FFF7E8B908BD0000D4
:104A8000074A02600022C0E90122C0E90322C0E90E
:104A90000522C0E907224FF480728284704700BF6C
:104AA0005C090408036870B504461B6B15469847FB
:104AB0002368204629465B6BBDE87040184700001C
:104AC00010B504462622002134F05AFC2046FFF798
:104AD000D7FF044B20462360FF2384F826300023B1
:104AE000A36210BDBC07040810B5044626220021AD
:104AF00034F046FC2046FFF7C3FF0A4B4FF47F0219
:104B000020462360084BA3624FF6FF73A385002362
:104B1000C4E90C324FF0FF322387E363C4E910236A
:104B200010BD00BF2C07040870BD03082DE9F04F2D
:104B300004468DB0002523F0DDFAA146BC4BE563A9
:104B400004F1980849F8403B4846FFF7B9FF04F1E3
:104B50006C03012604F5A27718460493FFF7B0FF13
:104B60004FF6FF730AA94046ADF828301EF07AF8D8
:104B7000B04B04F5E47A84F8BC6004F5047BC4F817
:104B8000983004F1C803C4F8C45018460293FFF7E4
:104B900077FF4FF47F4384F8EC60A4F8F430A64B21
:104BA000C4F8F050C4F8C83004F1FC03C4F8F8505D
:104BB00018460393FFF784FFA04B2A462946C4F802
:104BC000FC300398C4F82851A4F82C51C4E94C5582
:104BD000C4E94E55FFF766FFDDE9020117F022FF39
:104BE000974B84F8EC603846C4F8C830261DC4F8EA
:104BF00040511BF0E3FD04F5DA7318460593FEF708
:104C00000FFC904B5046C4F8C051C4F8B431243363
:104C1000C4F8BC31FFF768FF5846FFF765FF04F59D
:104C20008053894A4FF4E15104F51670C3F87C4E65
:104C3000C3F8782E854AC3F8845EC3F8802E1FF02F
:104C40004DFE4FF488732A464846294600934FF498
:104C5000F073FEF7C7FF4FF07F4349463046A36627
:104C60004FF0500917F0DEFE4FF488732A462946AC
:104C7000049800934FF4F073FEF7B4FF4FF0FF3346
:104C800004993046C4F8943017F0CCFE082340460F
:104C90000AA9ADF828301EF02FFF4B4605224046EA
:104CA00040F28B11CDF80090FEF79CFF404629465C
:104CB0001DF092FF41464FF05108304617F0B2FE0A
:104CC0002A4629464B460398CDF80080FEF78AFF16
:104CD00005230298A4F82C315D4BC4F8303103F55C
:104CE0004C533333C4F83431A3F5CC43663BC4F89A
:104CF000383103F1331303F54C53C4F83C31D4F885
:104D0000C8300393FFF7E2FD039B029884F8F55047
:104D1000D3F89030984704F5F353042240F28B11F6
:104D200018330298C4F8F8304B46CDF80080FEF7EF
:104D300059FF0299304617F075FE3A232A46294654
:104D40003846009340F28B13FEF74CFF4FF07F4341
:104D50004FF4A0624FF4A071C4F8C0313846059BEF
:104D6000A4F8C451C4F86C311BF03EFE4FF4A062AD
:104D700043F2200138461BF042FED4F88031202B4C
:104D800005D020233846C4F880311BF037FD384663
:104D900001211BF03FFE06AD394630464FF07F49FA
:104DA0004FF0000817F03EFE0F2250461021FFF78B
:104DB00079FE51462846C4F8F891A4F8FC811EF00B
:104DC000FBF90AF13C03234F95E8070083E807004D
:104DD00023230AA950460A97ADF82C301EF086FC12
:104DE0005146304617F01EFE2E2258461021FFF77E
:104DF00059FE59462846C4F84092A4F844821EF051
:104E0000DBF90BF13C0395E8070083E807001C235E
:104E10000AA958460A97ADF82C301EF067FC3046B8
:104E2000594617F0FFFD20460DB0BDE8F08F00BFDA
:104E300014CA030850C80308C4C803082408040897
:104E400060C903086CFC0308FCC90308694A000830
:104E5000996600FF70BD030830B585B0036804464D
:104E600001816D460146D3F884303C34284698478A
:104E700095E8070084E8070005B030BD30B585B07F
:104E80000368044641816D460146D3F884303C34C2
:104E90002846984795E8070084E8070005B030BD2C
:104EA0000022028042808280C280704780F83610E3
:104EB0007047036870B504461B6B15469847236816
:104EC000204629465B6EBDE87040184700207047B9
:104ED000806C7047704770477047704770477047E5
:104EE00070477047704770477047704770B44568A7
:104EF0000346C4689B68661005EB6400E40744BF82
:104F0000AC59E35870BC18470346406830B19A6802
:104F10001AB9D86800F0010070470120704730B41A
:104F200044680346C2689B68551004EB6200D207D0
:104F300048BF625930BC48BFD35818470346406841
:104F400030B19A681AB9D86800F0010070470120A2
:104F5000704710B504464C2132F0F6FF204610BDD4
:104F600010B50446102132F0EFFF204610BD10B5F9
:104F70000446102132F0E8FF204610BD10B504466B
:104F80004FF4F66132F0E0FF204610BD00F26C53A2
:104F9000994270B504460D4603D121F077F9FEF72A
:104FA00055FF04F2E4539D4207D121F06FF9FEF75B
:104FB0004DFF236820465B6C984704F563739D4260
:104FC00003D1236820465B6B984704F204439D425B
:104FD00003D1236820469B6B984704F27C439D4293
:104FE00003D123682046DB6B984704F2F4439D42CB
:104FF00005D1236820461B6CBDE87040184770BD82
:1050000008B5FEF787F808BD00F5C673994270B57C
:1050100004460E46154603D103681146DB6A9847DD
:1050200004F198039E4206D12368294620461B6B53
:10503000BDE87040184770BD036870B55E6B0446EC
:10504000114B8DB21B682BB9104B6C21104A1148C3
:1050500033F0C0FE1049828D0988914203D80F4B6E
:105060006D210B4AF3E713F812200D4B1B6853F820
:10507000220003681B6B9847291A3346204609B261
:10508000BDE87040184700BFF088012040CA0308FF
:1050900082CA0308BDCA0308F488012004CB0308B0
:1050A000F888012000224FF0FF318260C0E9002122
:1050B000704700000022C0E90122C0E90322C0E9D4
:1050C0000522C0E907224FF480728284014A0260FF
:1050D000704700BF98CB030838B504460D4626221A
:1050E000002134F04DF92046FFF7E4FF064B20463F
:1050F000294623602B88E384FF2384F828301EF0A0
:10510000FBFC204638BD00BF8C080408036880F80B
:105110002D10D3F8903018474FF47F4370B5838536
:1051200040F201130025064683840446114B856234
:105130000563C0E90155C0E90355C0E90555C0E95B
:10514000075546F8343B3046FFF7BAFC0A4B2A466F
:105150002946304663632566A4F86450C4E91A55AD
:10516000C4E91C55FFF79EFC2046314617F05AFC57
:10517000204670BDC4C803082408040810B403679F
:10518000019B5DF8044B43670368C0E91A12D3F82A
:105190008C3018472DE9F04F04469BB0002522F0D3
:1051A000A9FFA046DC4B04F16C0904F19807E56304
:1051B00004F5C67648F8403B4046FFF781FC484678
:1051C000FFF77EFC384618F0CDF8304618F0CAF8E4
:1051D00004F520734FF6FF7A18A918460293ADF82C
:1051E00060A01DF03FFDCD4B18A9C4F8AC5204F1EE
:1051F000040BC4F880324FF00103ADF860A084F8CE
:10520000A43204F52C73184603931DF02BFD04F50E
:10521000377318A9ADF860A018460E93FFF75CFF2E
:1052200004F5427318A9ADF860A018460F93FFF774
:1052300053FF04F54D7318A9ADF860A018461093FC
:10524000FFF74AFF04F5587318A9ADF860A0184697
:105250001193FFF741FF04F56373DFF8DCA21846F2
:105260000493FFF759FF04F2044318460593FFF730
:1052700053FF04F27C4318460693FFF74DFF04F2F8
:10528000F44318460793FFF747FF04F26C531846A0
:105290000893FFF741FF04F2E45318460993FFF720
:1052A0003BFF04F25C6318460A93FFF71DFC04F20F
:1052B000A46318460B93FFF717FC04F5DE63C4F8EC
:1052C000A4A61846C4F8EC560C93FFF70DFC04F5A1
:1052D000E76318460D93FFF707FC914BC4F838A716
:1052E0004FF4887AC4F890372A468E4B40462946B8
:1052F000C4F88057C4F898378B4BC4F89447C4F867
:10530000A0378A4BC4F89C57C4F8A8374FF4F07301
:10531000C4F8A447C4F8AC57CDF800A0FEF762FC6F
:105320004FF07F4341465846A36604F5F46817F0F2
:1053300079FB2A4648464FF4F0732946CDF800A081
:10534000FEF750FC4FF0FF3349465846C4F89430FE
:105350004FF0020A17F066FB3846C4224221FFF7DD
:10536000A1FB4FF0030318A94FF00102ADF858302C
:105370004FF0C8090B4617A93846ADF860200A4619
:1053800016A9ADF85CA018F047F82B4638460B225A
:105390001021CDE9005917F061FF3B22384629461C
:1053A00017F00DFE3846294617F0D1FD394658460C
:1053B000C4F8888117F036FB30464C224221FFF7B3
:1053C00071FB4FF003034FF00102304616A9ADF810
:1053D0005830ADF8602018AB17AAADF85CA018F0F3
:1053E0001BF82B4630460B22102106274FF0050AEA
:1053F000CDE9005917F032FF17223046294617F041
:10540000DEFD30462946DFF8349117F0A0FD314625
:105410005846C4F87C82502617F004FB082318A9CC
:10542000029804F5F268ADF860301EF065FB334673
:1054300024224FF4B77102980096FEF7D3FB294659
:1054400002981DF0C9FB0299584617F0EBFA0723A2
:1054500018A90398ADF860301EF04EFB33469C222D
:105460004FF4B77103980096FEF7BCFB29460398EA
:105470001DF0B2FB0399584617F0D4FAC62220213A
:105480000E98FFF70FFB18A90E98ADF860701EF08C
:1054900033FB0E99584617F0C5FA4E2220210F987B
:1054A000FFF700FB18A90F98ADF860701EF024FB01
:1054B0000F99584617F0B6FA0B27C6224FF4987189
:1054C0001098FFF7EFFA18A91098ADF860701EF069
:1054D00013FB1099584617F0A5FA4E224FF4987115
:1054E0001198FFF7DFFA18A91198ADF8607020271E
:1054F0001EF002FB1199584617F094FA3B462A46D3
:10550000294604F570700097FEF76CFB084B094ABA
:10551000A4F8F0A314E000BFC0CC030850C80308EF
:1055200090CC03088D4F0008A8CC03080950000850
:10553000663300FFCC9900FF00CC0308996633FF67
:10554000CA490498CDF80090FFF718FE2946049840
:10555000FFF7DCFD3B464E2239460498C4F8BC8375
:105560000097FEF73FFB0499584617F05BFA3B465D
:105570002A46294604F587600097FEF733FBBC4BAB
:10558000BC4AA4F868A4B9490598CDF80090FFF783
:10559000F5FD29460598FFF7B9FD3B464E224FF42D
:1055A00098710598C4F834840097FEF71BFB0599A1
:1055B000584617F037FA3B462A46294604F59660C6
:1055C0000097FEF70FFBAA4BAA4AA4F8E0A4A7494C
:1055D0000698CDF80090FFF7D1FD29460698FFF711
:1055E00095FD3B46C62239460698C4F8AC84009720
:1055F000FEF7F8FA0699584617F014FA3B462A4681
:10560000294604F5A5600097FEF7ECFA984B994AF5
:10561000A4F858A595490798CDF80090FFF7AEFD7E
:1056200029460798FFF772FD3B46C6224FF4987152
:105630000798C4F824850097FEF7D4FA07995846CE
:105640008D4F17F0EFF933462A46294604F5B4602A
:105650000096FEF7C7FA864B864AA4F8D0A5834980
:105660000898CDF80090FFF789FD29460898FFF7C4
:105670004DFD334626224FF4B7710898C4F89C8537
:105680000096FEF7AFFA0899584617F0CBF9334663
:105690002A46294604F5C3600096FEF7A3FA744B28
:1056A000744AA4F848A671490998CDF80090FFF70C
:1056B00065FD29460998FFF729FD33469C224FF4E2
:1056C000B7710998C4F81486009612AEFEF78AFAEC
:1056D00009995846DFF8B8A117F0A4F93A227D21BC
:1056E0000A98FFF7DFF94FF07F430A993046C4F874
:1056F0008C36A4F890561DF05FFD04F5D36396E850
:10570000070083E80700282318A90A98ADF8643039
:1057100018971DF0EBFF0A99584617F083F93A22C3
:10572000BE210B98FFF7BEF94FF07F43A4F8D8567F
:10573000C4F8D4364FF0FF33C4F8E056C4F8E4366A
:1057400004F28473C4F8E8560293DAF800302BB9F7
:105750004A4B60214A4A4B4833F03CFBDFF8349116
:10576000B9F80030182B03D8474B6121444AF2E7BF
:10577000DFF824811821D8F80000FFF771F8434AB8
:1057800003460321029824F06DF9029B0B98C4F89C
:10579000EC361DF08BFF252318A90B98ADF864306B
:1057A00018971DF0A3FF0B99584617F03BF9B0224C
:1057B00077210C98FFF776F94FF07F430C9930462C
:1057C000C4F82037A4F824571DF0F6FC04F22C731B
:1057D00096E8070083E80700272318A90C98ADF87E
:1057E000643018971DF082FF0C99584617F01AF98B
:1057F000B022CB210D98FFF755F94FF07F43A4F865
:105800006C57C4F868374FF0FF33C4F87457C4F8C6
:105810007837DAF80030C4F87C5704F28A75002B28
:1058200096D0B9F80030192B9ED91921D8F800006C
:10583000FFF716F8154A03460321284624F012F90B
:105840000D98C4F880571DF031FF262318A90D9834
:10585000ADF8643018971DF049FF58460D9917F0C0
:10586000E1F820461BB0BDE8F08F00BF996600FF4D
:10587000663300FFCC9900FF70BD030840CA0308DF
:1058800042CB0308BDCA030804CB0308C0ED0308DC
:10589000F0880120F4880120FC880120006B70470B
:1058A000406B704780F82C10704710B40368046B8D
:1058B000D3F8A430624361435DF8044B1847D0ED40
:1058C0000C7A0368F8EEE77A10B420EE270AD3F8D2
:1058D000A440B5EEC00AF1EE10FA1ADBB6EE007A7B
:1058E00030EE070ABDEEC07A17EE101A60EEA70A76
:1058F000F5EEC00AF1EE10FA1EDBF6EE007A70EE5D
:10590000A70AFDEEE07A17EE902A23465DF8044BD5
:105910001847BDEEC07AF8EEC76A17EE103A013BA1
:1059200030EE660AF7EE086A30EE260ABDEEC00ACF
:1059300010EE101A1944D9E7FDEEE07AB8EEE77AD6
:1059400017EE903A013B70EEC70AB7EE087A70EE98
:10595000870AFDEEE00A10EE902A1A44D5E710B44B
:105960000368046BD3F8B03062435DF8044B18470A
:10597000D0ED0C7A0368F8EEE77A10B427EE800ACF
:10598000D3F8B040B5EEC00AF1EE10FA0BDBF6EE3C
:10599000007A30EE270AFDEEC07A17EE902A2346F1
:1059A0005DF8044B1847FDEEC07AB8EEE77A17EEC3
:1059B000903A013B30EE470AB7EE087A30EE070A1C
:1059C000BDEEC00A10EE102A1A44E8E710B40368CE
:1059D000446BD3F8BC30624361435DF8044B184715
:1059E000D0ED0D7A0368F8EEE77A10B420EE270ABE
:1059F000D3F8BC40B5EEC00AF1EE10FA1ADBB6EEF1
:105A0000007A30EE070ABDEEC07A17EE101A60EE8B
:105A1000A70AF5EEC00AF1EE10FA1EDBF6EE007AE8
:105A200070EEA70AFDEEE07A17EE902A23465DF8A5
:105A3000044B1847BDEEC07AF8EEC76A17EE103A6D
:105A4000013B30EE660AF7EE086A30EE260ABDEE3C
:105A5000C00A10EE101A1944D9E7FDEEE07AB8EE4C
:105A6000E77A17EE903A013B70EEC70AB7EE087A74
:105A700070EE870AFDEEE00A10EE902A1A44D5E790
:105A800010B40368446BD3F8C03062435DF8044B34
:105A90001847D0ED0D7A0368F8EEE77A10B427EED8
:105AA000800AD3F8C040B5EEC00AF1EE10FA0BDB65
:105AB000F6EE007A30EE270AFDEEC07A17EE902A55
:105AC00023465DF8044B1847FDEEC07AB8EEE77A3E
:105AD00017EE903A013B30EE470AB7EE087A30EE07
